{
  "_format": "hh-sol-artifact-1",
  "contractName": "MoensToken",
  "sourceName": "contracts/MoensToken.sol",
  "abi": [
    {
      "inputs": [
        {
          "internalType": "address",
          "name": "_MoensNftContract",
          "type": "address"
        }
      ],
      "stateMutability": "nonpayable",
      "type": "constructor"
    },
    {
      "anonymous": false,
      "inputs": [
        {
          "indexed": true,
          "internalType": "address",
          "name": "owner",
          "type": "address"
        },
        {
          "indexed": true,
          "internalType": "address",
          "name": "spender",
          "type": "address"
        },
        {
          "indexed": false,
          "internalType": "uint256",
          "name": "value",
          "type": "uint256"
        }
      ],
      "name": "Approval",
      "type": "event"
    },
    {
      "anonymous": false,
      "inputs": [
        {
          "indexed": true,
          "internalType": "address",
          "name": "previousOwner",
          "type": "address"
        },
        {
          "indexed": true,
          "internalType": "address",
          "name": "newOwner",
          "type": "address"
        }
      ],
      "name": "OwnershipTransferred",
      "type": "event"
    },
    {
      "anonymous": false,
      "inputs": [
        {
          "indexed": true,
          "internalType": "address",
          "name": "from",
          "type": "address"
        },
        {
          "indexed": true,
          "internalType": "address",
          "name": "to",
          "type": "address"
        },
        {
          "indexed": false,
          "internalType": "uint256",
          "name": "value",
          "type": "uint256"
        }
      ],
      "name": "Transfer",
      "type": "event"
    },
    {
      "stateMutability": "payable",
      "type": "fallback"
    },
    {
      "inputs": [
        {
          "internalType": "address",
          "name": "owner",
          "type": "address"
        },
        {
          "internalType": "address",
          "name": "spender",
          "type": "address"
        }
      ],
      "name": "allowance",
      "outputs": [
        {
          "internalType": "uint256",
          "name": "",
          "type": "uint256"
        }
      ],
      "stateMutability": "view",
      "type": "function"
    },
    {
      "inputs": [
        {
          "internalType": "address",
          "name": "spender",
          "type": "address"
        },
        {
          "internalType": "uint256",
          "name": "amount",
          "type": "uint256"
        }
      ],
      "name": "approve",
      "outputs": [
        {
          "internalType": "bool",
          "name": "",
          "type": "bool"
        }
      ],
      "stateMutability": "nonpayable",
      "type": "function"
    },
    {
      "inputs": [
        {
          "internalType": "address",
          "name": "account",
          "type": "address"
        }
      ],
      "name": "balanceOf",
      "outputs": [
        {
          "internalType": "uint256",
          "name": "",
          "type": "uint256"
        }
      ],
      "stateMutability": "view",
      "type": "function"
    },
    {
      "inputs": [
        {
          "internalType": "uint256",
          "name": "_amount",
          "type": "uint256"
        }
      ],
      "name": "claim",
      "outputs": [],
      "stateMutability": "nonpayable",
      "type": "function"
    },
    {
      "inputs": [],
      "name": "decimals",
      "outputs": [
        {
          "internalType": "uint8",
          "name": "",
          "type": "uint8"
        }
      ],
      "stateMutability": "view",
      "type": "function"
    },
    {
      "inputs": [
        {
          "internalType": "address",
          "name": "spender",
          "type": "address"
        },
        {
          "internalType": "uint256",
          "name": "subtractedValue",
          "type": "uint256"
        }
      ],
      "name": "decreaseAllowance",
      "outputs": [
        {
          "internalType": "bool",
          "name": "",
          "type": "bool"
        }
      ],
      "stateMutability": "nonpayable",
      "type": "function"
    },
    {
      "inputs": [
        {
          "internalType": "address",
          "name": "spender",
          "type": "address"
        },
        {
          "internalType": "uint256",
          "name": "addedValue",
          "type": "uint256"
        }
      ],
      "name": "increaseAllowance",
      "outputs": [
        {
          "internalType": "bool",
          "name": "",
          "type": "bool"
        }
      ],
      "stateMutability": "nonpayable",
      "type": "function"
    },
    {
      "inputs": [],
      "name": "maxTotalSuppy",
      "outputs": [
        {
          "internalType": "uint256",
          "name": "",
          "type": "uint256"
        }
      ],
      "stateMutability": "view",
      "type": "function"
    },
    {
      "inputs": [
        {
          "internalType": "uint256",
          "name": "amount",
          "type": "uint256"
        }
      ],
      "name": "mint",
      "outputs": [],
      "stateMutability": "payable",
      "type": "function"
    },
    {
      "inputs": [],
      "name": "name",
      "outputs": [
        {
          "internalType": "string",
          "name": "",
          "type": "string"
        }
      ],
      "stateMutability": "view",
      "type": "function"
    },
    {
      "inputs": [],
      "name": "nftsRemaining",
      "outputs": [
        {
          "internalType": "uint256",
          "name": "",
          "type": "uint256"
        }
      ],
      "stateMutability": "view",
      "type": "function"
    },
    {
      "inputs": [],
      "name": "owner",
      "outputs": [
        {
          "internalType": "address",
          "name": "",
          "type": "address"
        }
      ],
      "stateMutability": "view",
      "type": "function"
    },
    {
      "inputs": [],
      "name": "remainingSupply",
      "outputs": [
        {
          "internalType": "uint256",
          "name": "",
          "type": "uint256"
        }
      ],
      "stateMutability": "view",
      "type": "function"
    },
    {
      "inputs": [],
      "name": "renounceOwnership",
      "outputs": [],
      "stateMutability": "nonpayable",
      "type": "function"
    },
    {
      "inputs": [],
      "name": "symbol",
      "outputs": [
        {
          "internalType": "string",
          "name": "",
          "type": "string"
        }
      ],
      "stateMutability": "view",
      "type": "function"
    },
    {
      "inputs": [
        {
          "internalType": "uint256",
          "name": "",
          "type": "uint256"
        }
      ],
      "name": "tokenIdsClaimed",
      "outputs": [
        {
          "internalType": "bool",
          "name": "",
          "type": "bool"
        }
      ],
      "stateMutability": "view",
      "type": "function"
    },
    {
      "inputs": [],
      "name": "tokenPerNft",
      "outputs": [
        {
          "internalType": "uint256",
          "name": "",
          "type": "uint256"
        }
      ],
      "stateMutability": "view",
      "type": "function"
    },
    {
      "inputs": [],
      "name": "tokenPrice",
      "outputs": [
        {
          "internalType": "uint256",
          "name": "",
          "type": "uint256"
        }
      ],
      "stateMutability": "view",
      "type": "function"
    },
    {
      "inputs": [],
      "name": "totalSupply",
      "outputs": [
        {
          "internalType": "uint256",
          "name": "",
          "type": "uint256"
        }
      ],
      "stateMutability": "view",
      "type": "function"
    },
    {
      "inputs": [
        {
          "internalType": "address",
          "name": "to",
          "type": "address"
        },
        {
          "internalType": "uint256",
          "name": "amount",
          "type": "uint256"
        }
      ],
      "name": "transfer",
      "outputs": [
        {
          "internalType": "bool",
          "name": "",
          "type": "bool"
        }
      ],
      "stateMutability": "nonpayable",
      "type": "function"
    },
    {
      "inputs": [
        {
          "internalType": "address",
          "name": "from",
          "type": "address"
        },
        {
          "internalType": "address",
          "name": "to",
          "type": "address"
        },
        {
          "internalType": "uint256",
          "name": "amount",
          "type": "uint256"
        }
      ],
      "name": "transferFrom",
      "outputs": [
        {
          "internalType": "bool",
          "name": "",
          "type": "bool"
        }
      ],
      "stateMutability": "nonpayable",
      "type": "function"
    },
    {
      "inputs": [
        {
          "internalType": "address",
          "name": "newOwner",
          "type": "address"
        }
      ],
      "name": "transferOwnership",
      "outputs": [],
      "stateMutability": "nonpayable",
      "type": "function"
    },
    {
      "inputs": [],
      "name": "withdraw",
      "outputs": [],
      "stateMutability": "nonpayable",
      "type": "function"
    },
    {
      "stateMutability": "payable",
      "type": "receive"
    }
  ],
  "bytecode": "0x60806040523480156200001157600080fd5b5060405162002d7538038062002d75833981810160405281019062000037919062000269565b6040518060400160405280600b81526020017f4d6f656e7320546f6b656e0000000000000000000000000000000000000000008152506040518060400160405280600381526020017f4d544b00000000000000000000000000000000000000000000000000000000008152508160039081620000b4919062000515565b508060049081620000c6919062000515565b505050620000e9620000dd6200013160201b60201c565b6200013960201b60201c565b80600760006101000a81548173ffffffffffffffffffffffffffffffffffffffff021916908373ffffffffffffffffffffffffffffffffffffffff16021790555050620005fc565b600033905090565b6000600560009054906101000a900473ffffffffffffffffffffffffffffffffffffffff16905081600560006101000a81548173ffffffffffffffffffffffffffffffffffffffff021916908373ffffffffffffffffffffffffffffffffffffffff1602179055508173ffffffffffffffffffffffffffffffffffffffff168173ffffffffffffffffffffffffffffffffffffffff167f8be0079c531659141344cd1fd0a4f28419497f9722a3daafe3b4186f6b6457e060405160405180910390a35050565b600080fd5b600073ffffffffffffffffffffffffffffffffffffffff82169050919050565b6000620002318262000204565b9050919050565b620002438162000224565b81146200024f57600080fd5b50565b600081519050620002638162000238565b92915050565b600060208284031215620002825762000281620001ff565b5b6000620002928482850162000252565b91505092915050565b600081519050919050565b7f4e487b7100000000000000000000000000000000000000000000000000000000600052604160045260246000fd5b7f4e487b7100000000000000000000000000000000000000000000000000000000600052602260045260246000fd5b600060028204905060018216806200031d57607f821691505b602082108103620003335762000332620002d5565b5b50919050565b60008190508160005260206000209050919050565b60006020601f8301049050919050565b600082821b905092915050565b6000600883026200039d7fffffffffffffffffffffffffffffffffffffffffffffffffffffffffffffffff826200035e565b620003a986836200035e565b95508019841693508086168417925050509392505050565b6000819050919050565b6000819050919050565b6000620003f6620003f0620003ea84620003c1565b620003cb565b620003c1565b9050919050565b6000819050919050565b6200041283620003d5565b6200042a6200042182620003fd565b8484546200036b565b825550505050565b600090565b6200044162000432565b6200044e81848462000407565b505050565b5b8181101562000476576200046a60008262000437565b60018101905062000454565b5050565b601f821115620004c5576200048f8162000339565b6200049a846200034e565b81016020851015620004aa578190505b620004c2620004b9856200034e565b83018262000453565b50505b505050565b600082821c905092915050565b6000620004ea60001984600802620004ca565b1980831691505092915050565b6000620005058383620004d7565b9150826002028217905092915050565b62000520826200029b565b67ffffffffffffffff8111156200053c576200053b620002a6565b5b62000548825462000304565b620005558282856200047a565b600060209050601f8311600181146200058d576000841562000578578287015190505b620005848582620004f7565b865550620005f4565b601f1984166200059d8662000339565b60005b82811015620005c757848901518255600182019150602085019450602081019050620005a0565b86831015620005e75784890151620005e3601f891682620004d7565b8355505b6001600288020188555050505b505050505050565b612769806200060c6000396000f3fe6080604052600436106101445760003560e01c806370a08231116100b6578063a457c2d71161006f578063a457c2d714610449578063a9059cbb14610486578063da0239a6146104c3578063dd62ed3e146104ee578063e27f09161461052b578063f2fde38b146105565761014b565b806370a0823114610358578063715018a6146103955780637ff9b596146103ac5780638da5cb5b146103d757806395d89b4114610402578063a0712d681461042d5761014b565b8063313ce56711610108578063313ce56714610248578063379607f514610273578063395093511461029c578063398513c8146102d95780633ccfd60b146103045780635f3690af1461031b5761014b565b806306fdde031461014d578063095ea7b31461017857806318160ddd146101b557806323b872dd146101e05780632652a3711461021d5761014b565b3661014b57005b005b34801561015957600080fd5b5061016261057f565b60405161016f9190611a00565b60405180910390f35b34801561018457600080fd5b5061019f600480360381019061019a9190611abb565b610611565b6040516101ac9190611b16565b60405180910390f35b3480156101c157600080fd5b506101ca610634565b6040516101d79190611b40565b60405180910390f35b3480156101ec57600080fd5b5061020760048036038101906102029190611b5b565b61063e565b6040516102149190611b16565b60405180910390f35b34801561022957600080fd5b5061023261066d565b60405161023f9190611b40565b60405180910390f35b34801561025457600080fd5b5061025d6106b9565b60405161026a9190611bca565b60405180910390f35b34801561027f57600080fd5b5061029a60048036038101906102959190611be5565b6106c2565b005b3480156102a857600080fd5b506102c360048036038101906102be9190611abb565b610a55565b6040516102d09190611b16565b60405180910390f35b3480156102e557600080fd5b506102ee610a8c565b6040516102fb9190611b40565b60405180910390f35b34801561031057600080fd5b50610319610a98565b005b34801561032757600080fd5b50610342600480360381019061033d9190611be5565b610c1b565b60405161034f9190611b16565b60405180910390f35b34801561036457600080fd5b5061037f600480360381019061037a9190611c12565b610c3b565b60405161038c9190611b40565b60405180910390f35b3480156103a157600080fd5b506103aa610c83565b005b3480156103b857600080fd5b506103c1610c97565b6040516103ce9190611b40565b60405180910390f35b3480156103e357600080fd5b506103ec610ca2565b6040516103f99190611c4e565b60405180910390f35b34801561040e57600080fd5b50610417610ccc565b6040516104249190611a00565b60405180910390f35b61044760048036038101906104429190611be5565b610d5e565b005b34801561045557600080fd5b50610470600480360381019061046b9190611abb565b610e3e565b60405161047d9190611b16565b60405180910390f35b34801561049257600080fd5b506104ad60048036038101906104a89190611abb565b610eb5565b6040516104ba9190611b16565b60405180910390f35b3480156104cf57600080fd5b506104d8610ed8565b6040516104e59190611b40565b60405180910390f35b3480156104fa57600080fd5b5061051560048036038101906105109190611c69565b610ede565b6040516105229190611b40565b60405180910390f35b34801561053757600080fd5b50610540610f65565b60405161054d9190611b40565b60405180910390f35b34801561056257600080fd5b5061057d60048036038101906105789190611c12565b610f73565b005b60606003805461058e90611cd8565b80601f01602080910402602001604051908101604052809291908181526020018280546105ba90611cd8565b80156106075780601f106105dc57610100808354040283529160200191610607565b820191906000526020600020905b8154815290600101906020018083116105ea57829003601f168201915b5050505050905090565b60008061061c610ff6565b9050610629818585610ffe565b600191505092915050565b6000600254905090565b600080610649610ff6565b90506106568582856111c7565b610661858585611253565b60019150509392505050565b600080600a60003373ffffffffffffffffffffffffffffffffffffffff1673ffffffffffffffffffffffffffffffffffffffff1681526020019081526020016000205490508091505090565b60006012905090565b60003390506107066040518060400160405280600b81526020017f53656e6465722069733a20000000000000000000000000000000000000000000815250826114c9565b6000600760009054906101000a900473ffffffffffffffffffffffffffffffffffffffff1673ffffffffffffffffffffffffffffffffffffffff166370a08231836040518263ffffffff1660e01b81526004016107639190611c4e565b602060405180830381865afa158015610780573d6000803e3d6000fd5b505050506040513d601f19601f820116820180604052508101906107a49190611d1e565b90506107e56040518060400160405280600c81526020017f42616c616e63652069733a20000000000000000000000000000000000000000081525082611565565b60008111610828576040517f08c379a000000000000000000000000000000000000000000000000000000000815260040161081f90611d97565b60405180910390fd5b6000600a60008473ffffffffffffffffffffffffffffffffffffffff1673ffffffffffffffffffffffffffffffffffffffff1681526020019081526020016000205411156108ab576040517f08c379a00000000000000000000000000000000000000000000000000000000081526004016108a290611e03565b60405180910390fd5b60011515600960008473ffffffffffffffffffffffffffffffffffffffff1673ffffffffffffffffffffffffffffffffffffffff16815260200190815260200160002060009054906101000a900460ff1615150361093e576040517f08c379a000000000000000000000000000000000000000000000000000000000815260040161093590611e03565b60405180910390fd5b6000678ac7230489e80000846109549190611e52565b905083826109629190611e94565b600a60008573ffffffffffffffffffffffffffffffffffffffff1673ffffffffffffffffffffffffffffffffffffffff168152602001908152602001600020819055506000600a60008573ffffffffffffffffffffffffffffffffffffffff1673ffffffffffffffffffffffffffffffffffffffff1681526020019081526020016000205403610a45576001600960008573ffffffffffffffffffffffffffffffffffffffff1673ffffffffffffffffffffffffffffffffffffffff16815260200190815260200160002060006101000a81548160ff0219169083151502179055505b610a4f3382611601565b50505050565b600080610a60610ff6565b9050610a81818585610a728589610ede565b610a7c9190611ec8565b610ffe565b600191505092915050565b678ac7230489e8000081565b610aa0611757565b600047905060008111610ae8576040517f08c379a0000000000000000000000000000000000000000000000000000000008152600401610adf90611f6e565b60405180910390fd5b6000610af2610ca2565b905060008173ffffffffffffffffffffffffffffffffffffffff1683604051610b1a90611fbf565b60006040518083038185875af1925050503d8060008114610b57576040519150601f19603f3d011682016040523d82523d6000602084013e610b5c565b606091505b5050905080610ba0576040517f08c379a0000000000000000000000000000000000000000000000000000000008152600401610b9790612020565b60405180910390fd5b610c166040518060400160405280600981526020017f4163636f756e743a200000000000000000000000000000000000000000000000815250836040518060400160405280600f81526020017f206a757374207265636965766564200000000000000000000000000000000000815250866117d5565b505050565b600b6020528060005260406000206000915054906101000a900460ff1681565b60008060008373ffffffffffffffffffffffffffffffffffffffff1673ffffffffffffffffffffffffffffffffffffffff168152602001908152602001600020549050919050565b610c8b611757565b610c956000611877565b565b66038d7ea4c6800081565b6000600560009054906101000a900473ffffffffffffffffffffffffffffffffffffffff16905090565b606060048054610cdb90611cd8565b80601f0160208091040260200160405190810160405280929190818152602001828054610d0790611cd8565b8015610d545780601f10610d2957610100808354040283529160200191610d54565b820191906000526020600020905b815481529060010190602001808311610d3757829003601f168201915b5050505050905090565b60008166038d7ea4c68000610d739190611e52565b905080341015610db8576040517f08c379a0000000000000000000000000000000000000000000000000000000008152600401610daf9061208c565b60405180910390fd5b6000670de0b6b3a764000083610dce9190611e52565b905069021e19e0c9bab240000081610de4610634565b610dee9190611ec8565b1115610e2f576040517f08c379a0000000000000000000000000000000000000000000000000000000008152600401610e269061211e565b60405180910390fd5b610e393382611601565b505050565b600080610e49610ff6565b90506000610e578286610ede565b905083811015610e9c576040517f08c379a0000000000000000000000000000000000000000000000000000000008152600401610e93906121b0565b60405180910390fd5b610ea98286868403610ffe565b60019250505092915050565b600080610ec0610ff6565b9050610ecd818585611253565b600191505092915050565b60065481565b6000600160008473ffffffffffffffffffffffffffffffffffffffff1673ffffffffffffffffffffffffffffffffffffffff16815260200190815260200160002060008373ffffffffffffffffffffffffffffffffffffffff1673ffffffffffffffffffffffffffffffffffffffff16815260200190815260200160002054905092915050565b69021e19e0c9bab240000081565b610f7b611757565b600073ffffffffffffffffffffffffffffffffffffffff168173ffffffffffffffffffffffffffffffffffffffff1603610fea576040517f08c379a0000000000000000000000000000000000000000000000000000000008152600401610fe190612242565b60405180910390fd5b610ff381611877565b50565b600033905090565b600073ffffffffffffffffffffffffffffffffffffffff168373ffffffffffffffffffffffffffffffffffffffff160361106d576040517f08c379a0000000000000000000000000000000000000000000000000000000008152600401611064906122d4565b60405180910390fd5b600073ffffffffffffffffffffffffffffffffffffffff168273ffffffffffffffffffffffffffffffffffffffff16036110dc576040517f08c379a00000000000000000000000000000000000000000000000000000000081526004016110d390612366565b60405180910390fd5b80600160008573ffffffffffffffffffffffffffffffffffffffff1673ffffffffffffffffffffffffffffffffffffffff16815260200190815260200160002060008473ffffffffffffffffffffffffffffffffffffffff1673ffffffffffffffffffffffffffffffffffffffff168152602001908152602001600020819055508173ffffffffffffffffffffffffffffffffffffffff168373ffffffffffffffffffffffffffffffffffffffff167f8c5be1e5ebec7d5bd14f71427d1e84f3dd0314c0f7b2291e5b200ac8c7c3b925836040516111ba9190611b40565b60405180910390a3505050565b60006111d38484610ede565b90507fffffffffffffffffffffffffffffffffffffffffffffffffffffffffffffffff811461124d578181101561123f576040517f08c379a0000000000000000000000000000000000000000000000000000000008152600401611236906123d2565b60405180910390fd5b61124c8484848403610ffe565b5b50505050565b600073ffffffffffffffffffffffffffffffffffffffff168373ffffffffffffffffffffffffffffffffffffffff16036112c2576040517f08c379a00000000000000000000000000000000000000000000000000000000081526004016112b990612464565b60405180910390fd5b600073ffffffffffffffffffffffffffffffffffffffff168273ffffffffffffffffffffffffffffffffffffffff1603611331576040517f08c379a0000000000000000000000000000000000000000000000000000000008152600401611328906124f6565b60405180910390fd5b61133c83838361193d565b60008060008573ffffffffffffffffffffffffffffffffffffffff1673ffffffffffffffffffffffffffffffffffffffff168152602001908152602001600020549050818110156113c2576040517f08c379a00000000000000000000000000000000000000000000000000000000081526004016113b990612588565b60405180910390fd5b8181036000808673ffffffffffffffffffffffffffffffffffffffff1673ffffffffffffffffffffffffffffffffffffffff16815260200190815260200160002081905550816000808573ffffffffffffffffffffffffffffffffffffffff1673ffffffffffffffffffffffffffffffffffffffff168152602001908152602001600020600082825401925050819055508273ffffffffffffffffffffffffffffffffffffffff168473ffffffffffffffffffffffffffffffffffffffff167fddf252ad1be2c89b69c2b068fc378daa952ba7f163c4a11628f55a4df523b3ef846040516114b09190611b40565b60405180910390a36114c3848484611942565b50505050565b61156182826040516024016114df9291906125a8565b6040516020818303038152906040527f319af333000000000000000000000000000000000000000000000000000000007bffffffffffffffffffffffffffffffffffffffffffffffffffffffff19166020820180517bffffffffffffffffffffffffffffffffffffffffffffffffffffffff8381831617835250505050611947565b5050565b6115fd828260405160240161157b9291906125d8565b6040516020818303038152906040527fb60e72cc000000000000000000000000000000000000000000000000000000007bffffffffffffffffffffffffffffffffffffffffffffffffffffffff19166020820180517bffffffffffffffffffffffffffffffffffffffffffffffffffffffff8381831617835250505050611947565b5050565b600073ffffffffffffffffffffffffffffffffffffffff168273ffffffffffffffffffffffffffffffffffffffff1603611670576040517f08c379a000000000000000000000000000000000000000000000000000000000815260040161166790612654565b60405180910390fd5b61167c6000838361193d565b806002600082825461168e9190611ec8565b92505081905550806000808473ffffffffffffffffffffffffffffffffffffffff1673ffffffffffffffffffffffffffffffffffffffff168152602001908152602001600020600082825401925050819055508173ffffffffffffffffffffffffffffffffffffffff16600073ffffffffffffffffffffffffffffffffffffffff167fddf252ad1be2c89b69c2b068fc378daa952ba7f163c4a11628f55a4df523b3ef8360405161173f9190611b40565b60405180910390a361175360008383611942565b5050565b61175f610ff6565b73ffffffffffffffffffffffffffffffffffffffff1661177d610ca2565b73ffffffffffffffffffffffffffffffffffffffff16146117d3576040517f08c379a00000000000000000000000000000000000000000000000000000000081526004016117ca906126c0565b60405180910390fd5b565b611871848484846040516024016117ef94939291906126e0565b6040516020818303038152906040527f91d1112e000000000000000000000000000000000000000000000000000000007bffffffffffffffffffffffffffffffffffffffffffffffffffffffff19166020820180517bffffffffffffffffffffffffffffffffffffffffffffffffffffffff8381831617835250505050611947565b50505050565b6000600560009054906101000a900473ffffffffffffffffffffffffffffffffffffffff16905081600560006101000a81548173ffffffffffffffffffffffffffffffffffffffff021916908373ffffffffffffffffffffffffffffffffffffffff1602179055508173ffffffffffffffffffffffffffffffffffffffff168173ffffffffffffffffffffffffffffffffffffffff167f8be0079c531659141344cd1fd0a4f28419497f9722a3daafe3b4186f6b6457e060405160405180910390a35050565b505050565b505050565b60008151905060006a636f6e736f6c652e6c6f679050602083016000808483855afa5050505050565b600081519050919050565b600082825260208201905092915050565b60005b838110156119aa57808201518184015260208101905061198f565b60008484015250505050565b6000601f19601f8301169050919050565b60006119d282611970565b6119dc818561197b565b93506119ec81856020860161198c565b6119f5816119b6565b840191505092915050565b60006020820190508181036000830152611a1a81846119c7565b905092915050565b600080fd5b600073ffffffffffffffffffffffffffffffffffffffff82169050919050565b6000611a5282611a27565b9050919050565b611a6281611a47565b8114611a6d57600080fd5b50565b600081359050611a7f81611a59565b92915050565b6000819050919050565b611a9881611a85565b8114611aa357600080fd5b50565b600081359050611ab581611a8f565b92915050565b60008060408385031215611ad257611ad1611a22565b5b6000611ae085828601611a70565b9250506020611af185828601611aa6565b9150509250929050565b60008115159050919050565b611b1081611afb565b82525050565b6000602082019050611b2b6000830184611b07565b92915050565b611b3a81611a85565b82525050565b6000602082019050611b556000830184611b31565b92915050565b600080600060608486031215611b7457611b73611a22565b5b6000611b8286828701611a70565b9350506020611b9386828701611a70565b9250506040611ba486828701611aa6565b9150509250925092565b600060ff82169050919050565b611bc481611bae565b82525050565b6000602082019050611bdf6000830184611bbb565b92915050565b600060208284031215611bfb57611bfa611a22565b5b6000611c0984828501611aa6565b91505092915050565b600060208284031215611c2857611c27611a22565b5b6000611c3684828501611a70565b91505092915050565b611c4881611a47565b82525050565b6000602082019050611c636000830184611c3f565b92915050565b60008060408385031215611c8057611c7f611a22565b5b6000611c8e85828601611a70565b9250506020611c9f85828601611a70565b9150509250929050565b7f4e487b7100000000000000000000000000000000000000000000000000000000600052602260045260246000fd5b60006002820490506001821680611cf057607f821691505b602082108103611d0357611d02611ca9565b5b50919050565b600081519050611d1881611a8f565b92915050565b600060208284031215611d3457611d33611a22565b5b6000611d4284828501611d09565b91505092915050565b7f596f7520646f206e6f74206f776e20616e79204d6f656e73204e465473000000600082015250565b6000611d81601d8361197b565b9150611d8c82611d4b565b602082019050919050565b60006020820190508181036000830152611db081611d74565b9050919050565b7f596f7527766520636c61696d656420616c6c20796f7572204e46547300000000600082015250565b6000611ded601c8361197b565b9150611df882611db7565b602082019050919050565b60006020820190508181036000830152611e1c81611de0565b9050919050565b7f4e487b7100000000000000000000000000000000000000000000000000000000600052601160045260246000fd5b6000611e5d82611a85565b9150611e6883611a85565b9250828202611e7681611a85565b91508282048414831517611e8d57611e8c611e23565b5b5092915050565b6000611e9f82611a85565b9150611eaa83611a85565b9250828203905081811115611ec257611ec1611e23565b5b92915050565b6000611ed382611a85565b9150611ede83611a85565b9250828201905080821115611ef657611ef5611e23565b5b92915050565b7f4e6f7468696e6720696e20746865206163636f756e7420746f2077697468647260008201527f6177000000000000000000000000000000000000000000000000000000000000602082015250565b6000611f5860228361197b565b9150611f6382611efc565b604082019050919050565b60006020820190508181036000830152611f8781611f4b565b9050919050565b600081905092915050565b50565b6000611fa9600083611f8e565b9150611fb482611f99565b600082019050919050565b6000611fca82611f9c565b9150819050919050565b7f46616c69656420746f207472616e7366657220616d6f756e7400000000000000600082015250565b600061200a60198361197b565b915061201582611fd4565b602082019050919050565b6000602082019050818103600083015261203981611ffd565b9050919050565b7f45746865722073656e74206973206e6f7420656e6f7567682100000000000000600082015250565b600061207660198361197b565b915061208182612040565b602082019050919050565b600060208201905081810360008301526120a581612069565b9050919050565b7f416d6f756e742065786365656473206d6178696d756d20746f74616c2073757060008201527f706c790000000000000000000000000000000000000000000000000000000000602082015250565b600061210860238361197b565b9150612113826120ac565b604082019050919050565b60006020820190508181036000830152612137816120fb565b9050919050565b7f45524332303a2064656372656173656420616c6c6f77616e63652062656c6f7760008201527f207a65726f000000000000000000000000000000000000000000000000000000602082015250565b600061219a60258361197b565b91506121a58261213e565b604082019050919050565b600060208201905081810360008301526121c98161218d565b9050919050565b7f4f776e61626c653a206e6577206f776e657220697320746865207a65726f206160008201527f6464726573730000000000000000000000000000000000000000000000000000602082015250565b600061222c60268361197b565b9150612237826121d0565b604082019050919050565b6000602082019050818103600083015261225b8161221f565b9050919050565b7f45524332303a20617070726f76652066726f6d20746865207a65726f2061646460008201527f7265737300000000000000000000000000000000000000000000000000000000602082015250565b60006122be60248361197b565b91506122c982612262565b604082019050919050565b600060208201905081810360008301526122ed816122b1565b9050919050565b7f45524332303a20617070726f766520746f20746865207a65726f20616464726560008201527f7373000000000000000000000000000000000000000000000000000000000000602082015250565b600061235060228361197b565b915061235b826122f4565b604082019050919050565b6000602082019050818103600083015261237f81612343565b9050919050565b7f45524332303a20696e73756666696369656e7420616c6c6f77616e6365000000600082015250565b60006123bc601d8361197b565b91506123c782612386565b602082019050919050565b600060208201905081810360008301526123eb816123af565b9050919050565b7f45524332303a207472616e736665722066726f6d20746865207a65726f20616460008201527f6472657373000000000000000000000000000000000000000000000000000000602082015250565b600061244e60258361197b565b9150612459826123f2565b604082019050919050565b6000602082019050818103600083015261247d81612441565b9050919050565b7f45524332303a207472616e7366657220746f20746865207a65726f206164647260008201527f6573730000000000000000000000000000000000000000000000000000000000602082015250565b60006124e060238361197b565b91506124eb82612484565b604082019050919050565b6000602082019050818103600083015261250f816124d3565b9050919050565b7f45524332303a207472616e7366657220616d6f756e742065786365656473206260008201527f616c616e63650000000000000000000000000000000000000000000000000000602082015250565b600061257260268361197b565b915061257d82612516565b604082019050919050565b600060208201905081810360008301526125a181612565565b9050919050565b600060408201905081810360008301526125c281856119c7565b90506125d16020830184611c3f565b9392505050565b600060408201905081810360008301526125f281856119c7565b90506126016020830184611b31565b9392505050565b7f45524332303a206d696e7420746f20746865207a65726f206164647265737300600082015250565b600061263e601f8361197b565b915061264982612608565b602082019050919050565b6000602082019050818103600083015261266d81612631565b9050919050565b7f4f776e61626c653a2063616c6c6572206973206e6f7420746865206f776e6572600082015250565b60006126aa60208361197b565b91506126b582612674565b602082019050919050565b600060208201905081810360008301526126d98161269d565b9050919050565b600060808201905081810360008301526126fa81876119c7565b90506127096020830186611c3f565b818103604083015261271b81856119c7565b905061272a6060830184611b31565b9594505050505056fea264697066735822122042d9d5990f479cec140b70aa0a77cdf32fb0961df8cdd2de94c3533f07295b8064736f6c63430008110033",
  "linkReferences": {},
  "deployedLinkReferences": {}
}