{
  "_format": "hh-sol-artifact-1",
  "contractName": "MoensToken",
  "sourceName": "contracts/MoensToken.sol",
  "abi": [
    {
      "inputs": [
        {
          "internalType": "address",
          "name": "_MoensNftContract",
          "type": "address"
        }
      ],
      "stateMutability": "nonpayable",
      "type": "constructor"
    },
    {
      "anonymous": false,
      "inputs": [
        {
          "indexed": true,
          "internalType": "address",
          "name": "owner",
          "type": "address"
        },
        {
          "indexed": true,
          "internalType": "address",
          "name": "spender",
          "type": "address"
        },
        {
          "indexed": false,
          "internalType": "uint256",
          "name": "value",
          "type": "uint256"
        }
      ],
      "name": "Approval",
      "type": "event"
    },
    {
      "anonymous": false,
      "inputs": [
        {
          "indexed": true,
          "internalType": "address",
          "name": "previousOwner",
          "type": "address"
        },
        {
          "indexed": true,
          "internalType": "address",
          "name": "newOwner",
          "type": "address"
        }
      ],
      "name": "OwnershipTransferred",
      "type": "event"
    },
    {
      "anonymous": false,
      "inputs": [
        {
          "indexed": true,
          "internalType": "address",
          "name": "from",
          "type": "address"
        },
        {
          "indexed": true,
          "internalType": "address",
          "name": "to",
          "type": "address"
        },
        {
          "indexed": false,
          "internalType": "uint256",
          "name": "value",
          "type": "uint256"
        }
      ],
      "name": "Transfer",
      "type": "event"
    },
    {
      "stateMutability": "payable",
      "type": "fallback"
    },
    {
      "inputs": [
        {
          "internalType": "address",
          "name": "owner",
          "type": "address"
        },
        {
          "internalType": "address",
          "name": "spender",
          "type": "address"
        }
      ],
      "name": "allowance",
      "outputs": [
        {
          "internalType": "uint256",
          "name": "",
          "type": "uint256"
        }
      ],
      "stateMutability": "view",
      "type": "function"
    },
    {
      "inputs": [
        {
          "internalType": "address",
          "name": "spender",
          "type": "address"
        },
        {
          "internalType": "uint256",
          "name": "amount",
          "type": "uint256"
        }
      ],
      "name": "approve",
      "outputs": [
        {
          "internalType": "bool",
          "name": "",
          "type": "bool"
        }
      ],
      "stateMutability": "nonpayable",
      "type": "function"
    },
    {
      "inputs": [
        {
          "internalType": "address",
          "name": "account",
          "type": "address"
        }
      ],
      "name": "balanceOf",
      "outputs": [
        {
          "internalType": "uint256",
          "name": "",
          "type": "uint256"
        }
      ],
      "stateMutability": "view",
      "type": "function"
    },
    {
      "inputs": [
        {
          "internalType": "uint256",
          "name": "_amount",
          "type": "uint256"
        }
      ],
      "name": "claim",
      "outputs": [
        {
          "internalType": "string",
          "name": "",
          "type": "string"
        }
      ],
      "stateMutability": "nonpayable",
      "type": "function"
    },
    {
      "inputs": [],
      "name": "decimals",
      "outputs": [
        {
          "internalType": "uint8",
          "name": "",
          "type": "uint8"
        }
      ],
      "stateMutability": "view",
      "type": "function"
    },
    {
      "inputs": [
        {
          "internalType": "address",
          "name": "spender",
          "type": "address"
        },
        {
          "internalType": "uint256",
          "name": "subtractedValue",
          "type": "uint256"
        }
      ],
      "name": "decreaseAllowance",
      "outputs": [
        {
          "internalType": "bool",
          "name": "",
          "type": "bool"
        }
      ],
      "stateMutability": "nonpayable",
      "type": "function"
    },
    {
      "inputs": [
        {
          "internalType": "address",
          "name": "spender",
          "type": "address"
        },
        {
          "internalType": "uint256",
          "name": "addedValue",
          "type": "uint256"
        }
      ],
      "name": "increaseAllowance",
      "outputs": [
        {
          "internalType": "bool",
          "name": "",
          "type": "bool"
        }
      ],
      "stateMutability": "nonpayable",
      "type": "function"
    },
    {
      "inputs": [],
      "name": "maxTotalSuppy",
      "outputs": [
        {
          "internalType": "uint256",
          "name": "",
          "type": "uint256"
        }
      ],
      "stateMutability": "view",
      "type": "function"
    },
    {
      "inputs": [
        {
          "internalType": "uint256",
          "name": "amount",
          "type": "uint256"
        }
      ],
      "name": "mint",
      "outputs": [],
      "stateMutability": "payable",
      "type": "function"
    },
    {
      "inputs": [],
      "name": "name",
      "outputs": [
        {
          "internalType": "string",
          "name": "",
          "type": "string"
        }
      ],
      "stateMutability": "view",
      "type": "function"
    },
    {
      "inputs": [],
      "name": "owner",
      "outputs": [
        {
          "internalType": "address",
          "name": "",
          "type": "address"
        }
      ],
      "stateMutability": "view",
      "type": "function"
    },
    {
      "inputs": [],
      "name": "remainingSupply",
      "outputs": [
        {
          "internalType": "uint256",
          "name": "",
          "type": "uint256"
        }
      ],
      "stateMutability": "view",
      "type": "function"
    },
    {
      "inputs": [],
      "name": "renounceOwnership",
      "outputs": [],
      "stateMutability": "nonpayable",
      "type": "function"
    },
    {
      "inputs": [],
      "name": "symbol",
      "outputs": [
        {
          "internalType": "string",
          "name": "",
          "type": "string"
        }
      ],
      "stateMutability": "view",
      "type": "function"
    },
    {
      "inputs": [
        {
          "internalType": "uint256",
          "name": "",
          "type": "uint256"
        }
      ],
      "name": "tokenIdsClaimed",
      "outputs": [
        {
          "internalType": "bool",
          "name": "",
          "type": "bool"
        }
      ],
      "stateMutability": "view",
      "type": "function"
    },
    {
      "inputs": [],
      "name": "tokenPerNft",
      "outputs": [
        {
          "internalType": "uint256",
          "name": "",
          "type": "uint256"
        }
      ],
      "stateMutability": "view",
      "type": "function"
    },
    {
      "inputs": [],
      "name": "tokenPrice",
      "outputs": [
        {
          "internalType": "uint256",
          "name": "",
          "type": "uint256"
        }
      ],
      "stateMutability": "view",
      "type": "function"
    },
    {
      "inputs": [],
      "name": "totalSupply",
      "outputs": [
        {
          "internalType": "uint256",
          "name": "",
          "type": "uint256"
        }
      ],
      "stateMutability": "view",
      "type": "function"
    },
    {
      "inputs": [
        {
          "internalType": "address",
          "name": "to",
          "type": "address"
        },
        {
          "internalType": "uint256",
          "name": "amount",
          "type": "uint256"
        }
      ],
      "name": "transfer",
      "outputs": [
        {
          "internalType": "bool",
          "name": "",
          "type": "bool"
        }
      ],
      "stateMutability": "nonpayable",
      "type": "function"
    },
    {
      "inputs": [
        {
          "internalType": "address",
          "name": "from",
          "type": "address"
        },
        {
          "internalType": "address",
          "name": "to",
          "type": "address"
        },
        {
          "internalType": "uint256",
          "name": "amount",
          "type": "uint256"
        }
      ],
      "name": "transferFrom",
      "outputs": [
        {
          "internalType": "bool",
          "name": "",
          "type": "bool"
        }
      ],
      "stateMutability": "nonpayable",
      "type": "function"
    },
    {
      "inputs": [
        {
          "internalType": "address",
          "name": "newOwner",
          "type": "address"
        }
      ],
      "name": "transferOwnership",
      "outputs": [],
      "stateMutability": "nonpayable",
      "type": "function"
    },
    {
      "inputs": [],
      "name": "withdraw",
      "outputs": [],
      "stateMutability": "nonpayable",
      "type": "function"
    },
    {
      "stateMutability": "payable",
      "type": "receive"
    }
  ],
  "bytecode": "0x60806040523480156200001157600080fd5b5060405162002b1e38038062002b1e833981810160405281019062000037919062000269565b6040518060400160405280600b81526020017f4d6f656e7320546f6b656e0000000000000000000000000000000000000000008152506040518060400160405280600381526020017f4d544b00000000000000000000000000000000000000000000000000000000008152508160039081620000b4919062000515565b508060049081620000c6919062000515565b505050620000e9620000dd6200013160201b60201c565b6200013960201b60201c565b80600760006101000a81548173ffffffffffffffffffffffffffffffffffffffff021916908373ffffffffffffffffffffffffffffffffffffffff16021790555050620005fc565b600033905090565b6000600560009054906101000a900473ffffffffffffffffffffffffffffffffffffffff16905081600560006101000a81548173ffffffffffffffffffffffffffffffffffffffff021916908373ffffffffffffffffffffffffffffffffffffffff1602179055508173ffffffffffffffffffffffffffffffffffffffff168173ffffffffffffffffffffffffffffffffffffffff167f8be0079c531659141344cd1fd0a4f28419497f9722a3daafe3b4186f6b6457e060405160405180910390a35050565b600080fd5b600073ffffffffffffffffffffffffffffffffffffffff82169050919050565b6000620002318262000204565b9050919050565b620002438162000224565b81146200024f57600080fd5b50565b600081519050620002638162000238565b92915050565b600060208284031215620002825762000281620001ff565b5b6000620002928482850162000252565b91505092915050565b600081519050919050565b7f4e487b7100000000000000000000000000000000000000000000000000000000600052604160045260246000fd5b7f4e487b7100000000000000000000000000000000000000000000000000000000600052602260045260246000fd5b600060028204905060018216806200031d57607f821691505b602082108103620003335762000332620002d5565b5b50919050565b60008190508160005260206000209050919050565b60006020601f8301049050919050565b600082821b905092915050565b6000600883026200039d7fffffffffffffffffffffffffffffffffffffffffffffffffffffffffffffffff826200035e565b620003a986836200035e565b95508019841693508086168417925050509392505050565b6000819050919050565b6000819050919050565b6000620003f6620003f0620003ea84620003c1565b620003cb565b620003c1565b9050919050565b6000819050919050565b6200041283620003d5565b6200042a6200042182620003fd565b8484546200036b565b825550505050565b600090565b6200044162000432565b6200044e81848462000407565b505050565b5b8181101562000476576200046a60008262000437565b60018101905062000454565b5050565b601f821115620004c5576200048f8162000339565b6200049a846200034e565b81016020851015620004aa578190505b620004c2620004b9856200034e565b83018262000453565b50505b505050565b600082821c905092915050565b6000620004ea60001984600802620004ca565b1980831691505092915050565b6000620005058383620004d7565b9150826002028217905092915050565b62000520826200029b565b67ffffffffffffffff8111156200053c576200053b620002a6565b5b62000548825462000304565b620005558282856200047a565b600060209050601f8311600181146200058d576000841562000578578287015190505b620005848582620004f7565b865550620005f4565b601f1984166200059d8662000339565b60005b82811015620005c757848901518255600182019150602085019450602081019050620005a0565b86831015620005e75784890151620005e3601f891682620004d7565b8355505b6001600288020188555050505b505050505050565b612512806200060c6000396000f3fe6080604052600436106101395760003560e01c8063715018a6116100ab578063a457c2d71161006f578063a457c2d714610427578063a9059cbb14610464578063da0239a6146104a1578063dd62ed3e146104cc578063e27f091614610509578063f2fde38b1461053457610140565b8063715018a6146103735780637ff9b5961461038a5780638da5cb5b146103b557806395d89b41146103e0578063a0712d681461040b57610140565b8063379607f5116100fd578063379607f51461023d578063395093511461027a578063398513c8146102b75780633ccfd60b146102e25780635f3690af146102f957806370a082311461033657610140565b806306fdde0314610142578063095ea7b31461016d57806318160ddd146101aa57806323b872dd146101d5578063313ce5671461021257610140565b3661014057005b005b34801561014e57600080fd5b5061015761055d565b60405161016491906117e3565b60405180910390f35b34801561017957600080fd5b50610194600480360381019061018f919061189e565b6105ef565b6040516101a191906118f9565b60405180910390f35b3480156101b657600080fd5b506101bf610612565b6040516101cc9190611923565b60405180910390f35b3480156101e157600080fd5b506101fc60048036038101906101f7919061193e565b61061c565b60405161020991906118f9565b60405180910390f35b34801561021e57600080fd5b5061022761064b565b60405161023491906119ad565b60405180910390f35b34801561024957600080fd5b50610264600480360381019061025f91906119c8565b610654565b60405161027191906117e3565b60405180910390f35b34801561028657600080fd5b506102a1600480360381019061029c919061189e565b610970565b6040516102ae91906118f9565b60405180910390f35b3480156102c357600080fd5b506102cc6109a7565b6040516102d99190611923565b60405180910390f35b3480156102ee57600080fd5b506102f76109b3565b005b34801561030557600080fd5b50610320600480360381019061031b91906119c8565b610b36565b60405161032d91906118f9565b60405180910390f35b34801561034257600080fd5b5061035d600480360381019061035891906119f5565b610b56565b60405161036a9190611923565b60405180910390f35b34801561037f57600080fd5b50610388610b9e565b005b34801561039657600080fd5b5061039f610bb2565b6040516103ac9190611923565b60405180910390f35b3480156103c157600080fd5b506103ca610bbd565b6040516103d79190611a31565b60405180910390f35b3480156103ec57600080fd5b506103f5610be7565b60405161040291906117e3565b60405180910390f35b610425600480360381019061042091906119c8565b610c79565b005b34801561043357600080fd5b5061044e6004803603810190610449919061189e565b610d59565b60405161045b91906118f9565b60405180910390f35b34801561047057600080fd5b5061048b6004803603810190610486919061189e565b610dd0565b60405161049891906118f9565b60405180910390f35b3480156104ad57600080fd5b506104b6610df3565b6040516104c39190611923565b60405180910390f35b3480156104d857600080fd5b506104f360048036038101906104ee9190611a4c565b610df9565b6040516105009190611923565b60405180910390f35b34801561051557600080fd5b5061051e610e80565b60405161052b9190611923565b60405180910390f35b34801561054057600080fd5b5061055b600480360381019061055691906119f5565b610e8e565b005b60606003805461056c90611abb565b80601f016020809104026020016040519081016040528092919081815260200182805461059890611abb565b80156105e55780601f106105ba576101008083540402835291602001916105e5565b820191906000526020600020905b8154815290600101906020018083116105c857829003601f168201915b5050505050905090565b6000806105fa610f11565b9050610607818585610f19565b600191505092915050565b6000600254905090565b600080610627610f11565b90506106348582856110e2565b61063f85858561116e565b60019150509392505050565b60006012905090565b60606000678ac7230489e800008361066c9190611b1b565b905060011515600960003373ffffffffffffffffffffffffffffffffffffffff1673ffffffffffffffffffffffffffffffffffffffff16815260200190815260200160002060009054906101000a900460ff16151503610796576000600a60003373ffffffffffffffffffffffffffffffffffffffff1673ffffffffffffffffffffffffffffffffffffffff1681526020019081526020016000205490508381101561074d576040517f08c379a000000000000000000000000000000000000000000000000000000000815260040161074490611bcf565b60405180910390fd5b61075733836113e4565b6040518060400160405280600c81526020017f546f6b656e732073656e742100000000000000000000000000000000000000008152509250505061096b565b6000600760009054906101000a900473ffffffffffffffffffffffffffffffffffffffff1673ffffffffffffffffffffffffffffffffffffffff166370a08231336040518263ffffffff1660e01b81526004016107f39190611a31565b602060405180830381865afa158015610810573d6000803e3d6000fd5b505050506040513d601f19601f820116820180604052508101906108349190611c04565b905060008111610879576040517f08c379a000000000000000000000000000000000000000000000000000000000815260040161087090611c7d565b60405180910390fd5b61088333836113e4565b6001600960003373ffffffffffffffffffffffffffffffffffffffff1673ffffffffffffffffffffffffffffffffffffffff16815260200190815260200160002060006101000a81548160ff021916908315150217905550600084826108e99190611c9d565b905080600a60003373ffffffffffffffffffffffffffffffffffffffff1673ffffffffffffffffffffffffffffffffffffffff168152602001908152602001600020819055506040518060400160405280600b81526020017f546f6b656e732073656e7400000000000000000000000000000000000000000081525093505050505b919050565b60008061097b610f11565b905061099c81858561098d8589610df9565b6109979190611cd1565b610f19565b600191505092915050565b678ac7230489e8000081565b6109bb61153a565b600047905060008111610a03576040517f08c379a00000000000000000000000000000000000000000000000000000000081526004016109fa90611d77565b60405180910390fd5b6000610a0d610bbd565b905060008173ffffffffffffffffffffffffffffffffffffffff1683604051610a3590611dc8565b60006040518083038185875af1925050503d8060008114610a72576040519150601f19603f3d011682016040523d82523d6000602084013e610a77565b606091505b5050905080610abb576040517f08c379a0000000000000000000000000000000000000000000000000000000008152600401610ab290611e29565b60405180910390fd5b610b316040518060400160405280600981526020017f4163636f756e743a200000000000000000000000000000000000000000000000815250836040518060400160405280600f81526020017f206a757374207265636965766564200000000000000000000000000000000000815250866115b8565b505050565b600b6020528060005260406000206000915054906101000a900460ff1681565b60008060008373ffffffffffffffffffffffffffffffffffffffff1673ffffffffffffffffffffffffffffffffffffffff168152602001908152602001600020549050919050565b610ba661153a565b610bb0600061165a565b565b66038d7ea4c6800081565b6000600560009054906101000a900473ffffffffffffffffffffffffffffffffffffffff16905090565b606060048054610bf690611abb565b80601f0160208091040260200160405190810160405280929190818152602001828054610c2290611abb565b8015610c6f5780601f10610c4457610100808354040283529160200191610c6f565b820191906000526020600020905b815481529060010190602001808311610c5257829003601f168201915b5050505050905090565b60008166038d7ea4c68000610c8e9190611b1b565b905080341015610cd3576040517f08c379a0000000000000000000000000000000000000000000000000000000008152600401610cca90611e95565b60405180910390fd5b6000670de0b6b3a764000083610ce99190611b1b565b905069021e19e0c9bab240000081610cff610612565b610d099190611cd1565b1115610d4a576040517f08c379a0000000000000000000000000000000000000000000000000000000008152600401610d4190611f27565b60405180910390fd5b610d5433826113e4565b505050565b600080610d64610f11565b90506000610d728286610df9565b905083811015610db7576040517f08c379a0000000000000000000000000000000000000000000000000000000008152600401610dae90611fb9565b60405180910390fd5b610dc48286868403610f19565b60019250505092915050565b600080610ddb610f11565b9050610de881858561116e565b600191505092915050565b60065481565b6000600160008473ffffffffffffffffffffffffffffffffffffffff1673ffffffffffffffffffffffffffffffffffffffff16815260200190815260200160002060008373ffffffffffffffffffffffffffffffffffffffff1673ffffffffffffffffffffffffffffffffffffffff16815260200190815260200160002054905092915050565b69021e19e0c9bab240000081565b610e9661153a565b600073ffffffffffffffffffffffffffffffffffffffff168173ffffffffffffffffffffffffffffffffffffffff1603610f05576040517f08c379a0000000000000000000000000000000000000000000000000000000008152600401610efc9061204b565b60405180910390fd5b610f0e8161165a565b50565b600033905090565b600073ffffffffffffffffffffffffffffffffffffffff168373ffffffffffffffffffffffffffffffffffffffff1603610f88576040517f08c379a0000000000000000000000000000000000000000000000000000000008152600401610f7f906120dd565b60405180910390fd5b600073ffffffffffffffffffffffffffffffffffffffff168273ffffffffffffffffffffffffffffffffffffffff1603610ff7576040517f08c379a0000000000000000000000000000000000000000000000000000000008152600401610fee9061216f565b60405180910390fd5b80600160008573ffffffffffffffffffffffffffffffffffffffff1673ffffffffffffffffffffffffffffffffffffffff16815260200190815260200160002060008473ffffffffffffffffffffffffffffffffffffffff1673ffffffffffffffffffffffffffffffffffffffff168152602001908152602001600020819055508173ffffffffffffffffffffffffffffffffffffffff168373ffffffffffffffffffffffffffffffffffffffff167f8c5be1e5ebec7d5bd14f71427d1e84f3dd0314c0f7b2291e5b200ac8c7c3b925836040516110d59190611923565b60405180910390a3505050565b60006110ee8484610df9565b90507fffffffffffffffffffffffffffffffffffffffffffffffffffffffffffffffff8114611168578181101561115a576040517f08c379a0000000000000000000000000000000000000000000000000000000008152600401611151906121db565b60405180910390fd5b6111678484848403610f19565b5b50505050565b600073ffffffffffffffffffffffffffffffffffffffff168373ffffffffffffffffffffffffffffffffffffffff16036111dd576040517f08c379a00000000000000000000000000000000000000000000000000000000081526004016111d49061226d565b60405180910390fd5b600073ffffffffffffffffffffffffffffffffffffffff168273ffffffffffffffffffffffffffffffffffffffff160361124c576040517f08c379a0000000000000000000000000000000000000000000000000000000008152600401611243906122ff565b60405180910390fd5b611257838383611720565b60008060008573ffffffffffffffffffffffffffffffffffffffff1673ffffffffffffffffffffffffffffffffffffffff168152602001908152602001600020549050818110156112dd576040517f08c379a00000000000000000000000000000000000000000000000000000000081526004016112d490612391565b60405180910390fd5b8181036000808673ffffffffffffffffffffffffffffffffffffffff1673ffffffffffffffffffffffffffffffffffffffff16815260200190815260200160002081905550816000808573ffffffffffffffffffffffffffffffffffffffff1673ffffffffffffffffffffffffffffffffffffffff168152602001908152602001600020600082825401925050819055508273ffffffffffffffffffffffffffffffffffffffff168473ffffffffffffffffffffffffffffffffffffffff167fddf252ad1be2c89b69c2b068fc378daa952ba7f163c4a11628f55a4df523b3ef846040516113cb9190611923565b60405180910390a36113de848484611725565b50505050565b600073ffffffffffffffffffffffffffffffffffffffff168273ffffffffffffffffffffffffffffffffffffffff1603611453576040517f08c379a000000000000000000000000000000000000000000000000000000000815260040161144a906123fd565b60405180910390fd5b61145f60008383611720565b80600260008282546114719190611cd1565b92505081905550806000808473ffffffffffffffffffffffffffffffffffffffff1673ffffffffffffffffffffffffffffffffffffffff168152602001908152602001600020600082825401925050819055508173ffffffffffffffffffffffffffffffffffffffff16600073ffffffffffffffffffffffffffffffffffffffff167fddf252ad1be2c89b69c2b068fc378daa952ba7f163c4a11628f55a4df523b3ef836040516115229190611923565b60405180910390a361153660008383611725565b5050565b611542610f11565b73ffffffffffffffffffffffffffffffffffffffff16611560610bbd565b73ffffffffffffffffffffffffffffffffffffffff16146115b6576040517f08c379a00000000000000000000000000000000000000000000000000000000081526004016115ad90612469565b60405180910390fd5b565b611654848484846040516024016115d29493929190612489565b6040516020818303038152906040527f91d1112e000000000000000000000000000000000000000000000000000000007bffffffffffffffffffffffffffffffffffffffffffffffffffffffff19166020820180517bffffffffffffffffffffffffffffffffffffffffffffffffffffffff838183161783525050505061172a565b50505050565b6000600560009054906101000a900473ffffffffffffffffffffffffffffffffffffffff16905081600560006101000a81548173ffffffffffffffffffffffffffffffffffffffff021916908373ffffffffffffffffffffffffffffffffffffffff1602179055508173ffffffffffffffffffffffffffffffffffffffff168173ffffffffffffffffffffffffffffffffffffffff167f8be0079c531659141344cd1fd0a4f28419497f9722a3daafe3b4186f6b6457e060405160405180910390a35050565b505050565b505050565b60008151905060006a636f6e736f6c652e6c6f679050602083016000808483855afa5050505050565b600081519050919050565b600082825260208201905092915050565b60005b8381101561178d578082015181840152602081019050611772565b60008484015250505050565b6000601f19601f8301169050919050565b60006117b582611753565b6117bf818561175e565b93506117cf81856020860161176f565b6117d881611799565b840191505092915050565b600060208201905081810360008301526117fd81846117aa565b905092915050565b600080fd5b600073ffffffffffffffffffffffffffffffffffffffff82169050919050565b60006118358261180a565b9050919050565b6118458161182a565b811461185057600080fd5b50565b6000813590506118628161183c565b92915050565b6000819050919050565b61187b81611868565b811461188657600080fd5b50565b60008135905061189881611872565b92915050565b600080604083850312156118b5576118b4611805565b5b60006118c385828601611853565b92505060206118d485828601611889565b9150509250929050565b60008115159050919050565b6118f3816118de565b82525050565b600060208201905061190e60008301846118ea565b92915050565b61191d81611868565b82525050565b60006020820190506119386000830184611914565b92915050565b60008060006060848603121561195757611956611805565b5b600061196586828701611853565b935050602061197686828701611853565b925050604061198786828701611889565b9150509250925092565b600060ff82169050919050565b6119a781611991565b82525050565b60006020820190506119c2600083018461199e565b92915050565b6000602082840312156119de576119dd611805565b5b60006119ec84828501611889565b91505092915050565b600060208284031215611a0b57611a0a611805565b5b6000611a1984828501611853565b91505092915050565b611a2b8161182a565b82525050565b6000602082019050611a466000830184611a22565b92915050565b60008060408385031215611a6357611a62611805565b5b6000611a7185828601611853565b9250506020611a8285828601611853565b9150509250929050565b7f4e487b7100000000000000000000000000000000000000000000000000000000600052602260045260246000fd5b60006002820490506001821680611ad357607f821691505b602082108103611ae657611ae5611a8c565b5b50919050565b7f4e487b7100000000000000000000000000000000000000000000000000000000600052601160045260246000fd5b6000611b2682611868565b9150611b3183611868565b9250828202611b3f81611868565b91508282048414831517611b5657611b55611aec565b5b5092915050565b7f496e73756666696369656e74204e46542062616c616e636520746f20636c616960008201527f6d20746f6b656e73210000000000000000000000000000000000000000000000602082015250565b6000611bb960298361175e565b9150611bc482611b5d565b604082019050919050565b60006020820190508181036000830152611be881611bac565b9050919050565b600081519050611bfe81611872565b92915050565b600060208284031215611c1a57611c19611805565b5b6000611c2884828501611bef565b91505092915050565b7f596f7520646f206e6f74206f776e20616e79204e465473210000000000000000600082015250565b6000611c6760188361175e565b9150611c7282611c31565b602082019050919050565b60006020820190508181036000830152611c9681611c5a565b9050919050565b6000611ca882611868565b9150611cb383611868565b9250828203905081811115611ccb57611cca611aec565b5b92915050565b6000611cdc82611868565b9150611ce783611868565b9250828201905080821115611cff57611cfe611aec565b5b92915050565b7f4e6f7468696e6720696e20746865206163636f756e7420746f2077697468647260008201527f6177000000000000000000000000000000000000000000000000000000000000602082015250565b6000611d6160228361175e565b9150611d6c82611d05565b604082019050919050565b60006020820190508181036000830152611d9081611d54565b9050919050565b600081905092915050565b50565b6000611db2600083611d97565b9150611dbd82611da2565b600082019050919050565b6000611dd382611da5565b9150819050919050565b7f46616c69656420746f207472616e7366657220616d6f756e7400000000000000600082015250565b6000611e1360198361175e565b9150611e1e82611ddd565b602082019050919050565b60006020820190508181036000830152611e4281611e06565b9050919050565b7f45746865722073656e74206973206e6f7420656e6f7567682100000000000000600082015250565b6000611e7f60198361175e565b9150611e8a82611e49565b602082019050919050565b60006020820190508181036000830152611eae81611e72565b9050919050565b7f416d6f756e742065786365656473206d6178696d756d20746f74616c2073757060008201527f706c790000000000000000000000000000000000000000000000000000000000602082015250565b6000611f1160238361175e565b9150611f1c82611eb5565b604082019050919050565b60006020820190508181036000830152611f4081611f04565b9050919050565b7f45524332303a2064656372656173656420616c6c6f77616e63652062656c6f7760008201527f207a65726f000000000000000000000000000000000000000000000000000000602082015250565b6000611fa360258361175e565b9150611fae82611f47565b604082019050919050565b60006020820190508181036000830152611fd281611f96565b9050919050565b7f4f776e61626c653a206e6577206f776e657220697320746865207a65726f206160008201527f6464726573730000000000000000000000000000000000000000000000000000602082015250565b600061203560268361175e565b915061204082611fd9565b604082019050919050565b6000602082019050818103600083015261206481612028565b9050919050565b7f45524332303a20617070726f76652066726f6d20746865207a65726f2061646460008201527f7265737300000000000000000000000000000000000000000000000000000000602082015250565b60006120c760248361175e565b91506120d28261206b565b604082019050919050565b600060208201905081810360008301526120f6816120ba565b9050919050565b7f45524332303a20617070726f766520746f20746865207a65726f20616464726560008201527f7373000000000000000000000000000000000000000000000000000000000000602082015250565b600061215960228361175e565b9150612164826120fd565b604082019050919050565b600060208201905081810360008301526121888161214c565b9050919050565b7f45524332303a20696e73756666696369656e7420616c6c6f77616e6365000000600082015250565b60006121c5601d8361175e565b91506121d08261218f565b602082019050919050565b600060208201905081810360008301526121f4816121b8565b9050919050565b7f45524332303a207472616e736665722066726f6d20746865207a65726f20616460008201527f6472657373000000000000000000000000000000000000000000000000000000602082015250565b600061225760258361175e565b9150612262826121fb565b604082019050919050565b600060208201905081810360008301526122868161224a565b9050919050565b7f45524332303a207472616e7366657220746f20746865207a65726f206164647260008201527f6573730000000000000000000000000000000000000000000000000000000000602082015250565b60006122e960238361175e565b91506122f48261228d565b604082019050919050565b60006020820190508181036000830152612318816122dc565b9050919050565b7f45524332303a207472616e7366657220616d6f756e742065786365656473206260008201527f616c616e63650000000000000000000000000000000000000000000000000000602082015250565b600061237b60268361175e565b91506123868261231f565b604082019050919050565b600060208201905081810360008301526123aa8161236e565b9050919050565b7f45524332303a206d696e7420746f20746865207a65726f206164647265737300600082015250565b60006123e7601f8361175e565b91506123f2826123b1565b602082019050919050565b60006020820190508181036000830152612416816123da565b9050919050565b7f4f776e61626c653a2063616c6c6572206973206e6f7420746865206f776e6572600082015250565b600061245360208361175e565b915061245e8261241d565b602082019050919050565b6000602082019050818103600083015261248281612446565b9050919050565b600060808201905081810360008301526124a381876117aa565b90506124b26020830186611a22565b81810360408301526124c481856117aa565b90506124d36060830184611914565b9594505050505056fea2646970667358221220b299f33a089c7e4bc44cb859f3258e1eac3905e63a56bd934bfce1b3128edd7864736f6c63430008110033",
  "linkReferences": {},
  "deployedLinkReferences": {}
}