{
    "_format": "hh-sol-artifact-1",
    "contractName": "MoensToken",
    "sourceName": "contracts/MoensToken.sol",
    "abi": [
        {
            "inputs": [
                {
                    "internalType": "address",
                    "name": "_MoensNftContract",
                    "type": "address"
                }
            ],
            "stateMutability": "nonpayable",
            "type": "constructor"
        },
        {
            "anonymous": false,
            "inputs": [
                {
                    "indexed": true,
                    "internalType": "address",
                    "name": "owner",
                    "type": "address"
                },
                {
                    "indexed": true,
                    "internalType": "address",
                    "name": "spender",
                    "type": "address"
                },
                {
                    "indexed": false,
                    "internalType": "uint256",
                    "name": "value",
                    "type": "uint256"
                }
            ],
            "name": "Approval",
            "type": "event"
        },
        {
            "anonymous": false,
            "inputs": [
                {
                    "indexed": true,
                    "internalType": "address",
                    "name": "previousOwner",
                    "type": "address"
                },
                {
                    "indexed": true,
                    "internalType": "address",
                    "name": "newOwner",
                    "type": "address"
                }
            ],
            "name": "OwnershipTransferred",
            "type": "event"
        },
        {
            "anonymous": false,
            "inputs": [
                {
                    "indexed": true,
                    "internalType": "address",
                    "name": "from",
                    "type": "address"
                },
                {
                    "indexed": true,
                    "internalType": "address",
                    "name": "to",
                    "type": "address"
                },
                {
                    "indexed": false,
                    "internalType": "uint256",
                    "name": "value",
                    "type": "uint256"
                }
            ],
            "name": "Transfer",
            "type": "event"
        },
        {
            "stateMutability": "payable",
            "type": "fallback"
        },
        {
            "inputs": [
                {
                    "internalType": "address",
                    "name": "owner",
                    "type": "address"
                },
                {
                    "internalType": "address",
                    "name": "spender",
                    "type": "address"
                }
            ],
            "name": "allowance",
            "outputs": [
                {
                    "internalType": "uint256",
                    "name": "",
                    "type": "uint256"
                }
            ],
            "stateMutability": "view",
            "type": "function"
        },
        {
            "inputs": [
                {
                    "internalType": "address",
                    "name": "spender",
                    "type": "address"
                },
                {
                    "internalType": "uint256",
                    "name": "amount",
                    "type": "uint256"
                }
            ],
            "name": "approve",
            "outputs": [
                {
                    "internalType": "bool",
                    "name": "",
                    "type": "bool"
                }
            ],
            "stateMutability": "nonpayable",
            "type": "function"
        },
        {
            "inputs": [
                {
                    "internalType": "address",
                    "name": "account",
                    "type": "address"
                }
            ],
            "name": "balanceOf",
            "outputs": [
                {
                    "internalType": "uint256",
                    "name": "",
                    "type": "uint256"
                }
            ],
            "stateMutability": "view",
            "type": "function"
        },
        {
            "inputs": [],
            "name": "claim",
            "outputs": [],
            "stateMutability": "nonpayable",
            "type": "function"
        },
        {
            "inputs": [],
            "name": "decimals",
            "outputs": [
                {
                    "internalType": "uint8",
                    "name": "",
                    "type": "uint8"
                }
            ],
            "stateMutability": "view",
            "type": "function"
        },
        {
            "inputs": [
                {
                    "internalType": "address",
                    "name": "spender",
                    "type": "address"
                },
                {
                    "internalType": "uint256",
                    "name": "subtractedValue",
                    "type": "uint256"
                }
            ],
            "name": "decreaseAllowance",
            "outputs": [
                {
                    "internalType": "bool",
                    "name": "",
                    "type": "bool"
                }
            ],
            "stateMutability": "nonpayable",
            "type": "function"
        },
        {
            "inputs": [
                {
                    "internalType": "address",
                    "name": "spender",
                    "type": "address"
                },
                {
                    "internalType": "uint256",
                    "name": "addedValue",
                    "type": "uint256"
                }
            ],
            "name": "increaseAllowance",
            "outputs": [
                {
                    "internalType": "bool",
                    "name": "",
                    "type": "bool"
                }
            ],
            "stateMutability": "nonpayable",
            "type": "function"
        },
        {
            "inputs": [],
            "name": "maxTotalSuppy",
            "outputs": [
                {
                    "internalType": "uint256",
                    "name": "",
                    "type": "uint256"
                }
            ],
            "stateMutability": "view",
            "type": "function"
        },
        {
            "inputs": [
                {
                    "internalType": "uint256",
                    "name": "amount",
                    "type": "uint256"
                }
            ],
            "name": "mint",
            "outputs": [],
            "stateMutability": "payable",
            "type": "function"
        },
        {
            "inputs": [],
            "name": "name",
            "outputs": [
                {
                    "internalType": "string",
                    "name": "",
                    "type": "string"
                }
            ],
            "stateMutability": "view",
            "type": "function"
        },
        {
            "inputs": [],
            "name": "owner",
            "outputs": [
                {
                    "internalType": "address",
                    "name": "",
                    "type": "address"
                }
            ],
            "stateMutability": "view",
            "type": "function"
        },
        {
            "inputs": [],
            "name": "renounceOwnership",
            "outputs": [],
            "stateMutability": "nonpayable",
            "type": "function"
        },
        {
            "inputs": [],
            "name": "symbol",
            "outputs": [
                {
                    "internalType": "string",
                    "name": "",
                    "type": "string"
                }
            ],
            "stateMutability": "view",
            "type": "function"
        },
        {
            "inputs": [
                {
                    "internalType": "uint256",
                    "name": "",
                    "type": "uint256"
                }
            ],
            "name": "tokenIdsClaimed",
            "outputs": [
                {
                    "internalType": "bool",
                    "name": "",
                    "type": "bool"
                }
            ],
            "stateMutability": "view",
            "type": "function"
        },
        {
            "inputs": [],
            "name": "tokenPerNft",
            "outputs": [
                {
                    "internalType": "uint256",
                    "name": "",
                    "type": "uint256"
                }
            ],
            "stateMutability": "view",
            "type": "function"
        },
        {
            "inputs": [],
            "name": "tokenPrice",
            "outputs": [
                {
                    "internalType": "uint256",
                    "name": "",
                    "type": "uint256"
                }
            ],
            "stateMutability": "view",
            "type": "function"
        },
        {
            "inputs": [],
            "name": "totalSupply",
            "outputs": [
                {
                    "internalType": "uint256",
                    "name": "",
                    "type": "uint256"
                }
            ],
            "stateMutability": "view",
            "type": "function"
        },
        {
            "inputs": [
                {
                    "internalType": "address",
                    "name": "to",
                    "type": "address"
                },
                {
                    "internalType": "uint256",
                    "name": "amount",
                    "type": "uint256"
                }
            ],
            "name": "transfer",
            "outputs": [
                {
                    "internalType": "bool",
                    "name": "",
                    "type": "bool"
                }
            ],
            "stateMutability": "nonpayable",
            "type": "function"
        },
        {
            "inputs": [
                {
                    "internalType": "address",
                    "name": "from",
                    "type": "address"
                },
                {
                    "internalType": "address",
                    "name": "to",
                    "type": "address"
                },
                {
                    "internalType": "uint256",
                    "name": "amount",
                    "type": "uint256"
                }
            ],
            "name": "transferFrom",
            "outputs": [
                {
                    "internalType": "bool",
                    "name": "",
                    "type": "bool"
                }
            ],
            "stateMutability": "nonpayable",
            "type": "function"
        },
        {
            "inputs": [
                {
                    "internalType": "address",
                    "name": "newOwner",
                    "type": "address"
                }
            ],
            "name": "transferOwnership",
            "outputs": [],
            "stateMutability": "nonpayable",
            "type": "function"
        },
        {
            "inputs": [],
            "name": "withdraw",
            "outputs": [],
            "stateMutability": "nonpayable",
            "type": "function"
        },
        {
            "stateMutability": "payable",
            "type": "receive"
        }
    ],
    "bytecode": "0x60806040523480156200001157600080fd5b50604051620028aa380380620028aa833981810160405281019062000037919062000269565b6040518060400160405280600b81526020017f4d6f656e7320546f6b656e0000000000000000000000000000000000000000008152506040518060400160405280600381526020017f4d544b00000000000000000000000000000000000000000000000000000000008152508160039081620000b4919062000515565b508060049081620000c6919062000515565b505050620000e9620000dd6200013160201b60201c565b6200013960201b60201c565b80600660006101000a81548173ffffffffffffffffffffffffffffffffffffffff021916908373ffffffffffffffffffffffffffffffffffffffff16021790555050620005fc565b600033905090565b6000600560009054906101000a900473ffffffffffffffffffffffffffffffffffffffff16905081600560006101000a81548173ffffffffffffffffffffffffffffffffffffffff021916908373ffffffffffffffffffffffffffffffffffffffff1602179055508173ffffffffffffffffffffffffffffffffffffffff168173ffffffffffffffffffffffffffffffffffffffff167f8be0079c531659141344cd1fd0a4f28419497f9722a3daafe3b4186f6b6457e060405160405180910390a35050565b600080fd5b600073ffffffffffffffffffffffffffffffffffffffff82169050919050565b6000620002318262000204565b9050919050565b620002438162000224565b81146200024f57600080fd5b50565b600081519050620002638162000238565b92915050565b600060208284031215620002825762000281620001ff565b5b6000620002928482850162000252565b91505092915050565b600081519050919050565b7f4e487b7100000000000000000000000000000000000000000000000000000000600052604160045260246000fd5b7f4e487b7100000000000000000000000000000000000000000000000000000000600052602260045260246000fd5b600060028204905060018216806200031d57607f821691505b602082108103620003335762000332620002d5565b5b50919050565b60008190508160005260206000209050919050565b60006020601f8301049050919050565b600082821b905092915050565b6000600883026200039d7fffffffffffffffffffffffffffffffffffffffffffffffffffffffffffffffff826200035e565b620003a986836200035e565b95508019841693508086168417925050509392505050565b6000819050919050565b6000819050919050565b6000620003f6620003f0620003ea84620003c1565b620003cb565b620003c1565b9050919050565b6000819050919050565b6200041283620003d5565b6200042a6200042182620003fd565b8484546200036b565b825550505050565b600090565b6200044162000432565b6200044e81848462000407565b505050565b5b8181101562000476576200046a60008262000437565b60018101905062000454565b5050565b601f821115620004c5576200048f8162000339565b6200049a846200034e565b81016020851015620004aa578190505b620004c2620004b9856200034e565b83018262000453565b50505b505050565b600082821c905092915050565b6000620004ea60001984600802620004ca565b1980831691505092915050565b6000620005058383620004d7565b9150826002028217905092915050565b62000520826200029b565b67ffffffffffffffff8111156200053c576200053b620002a6565b5b62000548825462000304565b620005558282856200047a565b600060209050601f8311600181146200058d576000841562000578578287015190505b620005848582620004f7565b865550620005f4565b601f1984166200059d8662000339565b60005b82811015620005c757848901518255600182019150602085019450602081019050620005a0565b86831015620005e75784890151620005e3601f891682620004d7565b8355505b6001600288020188555050505b505050505050565b61229e806200060c6000396000f3fe60806040526004361061012e5760003560e01c806370a08231116100ab578063a0712d681161006f578063a0712d68146103da578063a457c2d7146103f6578063a9059cbb14610433578063dd62ed3e14610470578063e27f0916146104ad578063f2fde38b146104d857610135565b806370a0823114610305578063715018a6146103425780637ff9b596146103595780638da5cb5b1461038457806395d89b41146103af57610135565b806339509351116100f25780633950935114610232578063398513c81461026f5780633ccfd60b1461029a5780634e71d92d146102b15780635f3690af146102c857610135565b806306fdde0314610137578063095ea7b31461016257806318160ddd1461019f57806323b872dd146101ca578063313ce5671461020757610135565b3661013557005b005b34801561014357600080fd5b5061014c610501565b6040516101599190611660565b60405180910390f35b34801561016e57600080fd5b506101896004803603810190610184919061171b565b610593565b6040516101969190611776565b60405180910390f35b3480156101ab57600080fd5b506101b46105b6565b6040516101c191906117a0565b60405180910390f35b3480156101d657600080fd5b506101f160048036038101906101ec91906117bb565b6105c0565b6040516101fe9190611776565b60405180910390f35b34801561021357600080fd5b5061021c6105ef565b604051610229919061182a565b60405180910390f35b34801561023e57600080fd5b506102596004803603810190610254919061171b565b6105f8565b6040516102669190611776565b60405180910390f35b34801561027b57600080fd5b5061028461062f565b60405161029191906117a0565b60405180910390f35b3480156102a657600080fd5b506102af61063b565b005b3480156102bd57600080fd5b506102c66107be565b005b3480156102d457600080fd5b506102ef60048036038101906102ea9190611845565b610805565b6040516102fc9190611776565b60405180910390f35b34801561031157600080fd5b5061032c60048036038101906103279190611872565b610825565b60405161033991906117a0565b60405180910390f35b34801561034e57600080fd5b5061035761086d565b005b34801561036557600080fd5b5061036e610881565b60405161037b91906117a0565b60405180910390f35b34801561039057600080fd5b5061039961088c565b6040516103a691906118ae565b60405180910390f35b3480156103bb57600080fd5b506103c46108b6565b6040516103d19190611660565b60405180910390f35b6103f460048036038101906103ef9190611845565b610948565b005b34801561040257600080fd5b5061041d6004803603810190610418919061171b565b610a9e565b60405161042a9190611776565b60405180910390f35b34801561043f57600080fd5b5061045a6004803603810190610455919061171b565b610b15565b6040516104679190611776565b60405180910390f35b34801561047c57600080fd5b50610497600480360381019061049291906118c9565b610b38565b6040516104a491906117a0565b60405180910390f35b3480156104b957600080fd5b506104c2610bbf565b6040516104cf91906117a0565b60405180910390f35b3480156104e457600080fd5b506104ff60048036038101906104fa9190611872565b610bcd565b005b60606003805461051090611938565b80601f016020809104026020016040519081016040528092919081815260200182805461053c90611938565b80156105895780601f1061055e57610100808354040283529160200191610589565b820191906000526020600020905b81548152906001019060200180831161056c57829003601f168201915b5050505050905090565b60008061059e610c50565b90506105ab818585610c58565b600191505092915050565b6000600254905090565b6000806105cb610c50565b90506105d8858285610e21565b6105e3858585610ead565b60019150509392505050565b60006012905090565b600080610603610c50565b90506106248185856106158589610b38565b61061f9190611998565b610c58565b600191505092915050565b678ac7230489e8000081565b610643611123565b60004790506000811161068b576040517f08c379a000000000000000000000000000000000000000000000000000000000815260040161068290611a3e565b60405180910390fd5b600061069561088c565b905060008173ffffffffffffffffffffffffffffffffffffffff16836040516106bd90611a8f565b60006040518083038185875af1925050503d80600081146106fa576040519150601f19603f3d011682016040523d82523d6000602084013e6106ff565b606091505b5050905080610743576040517f08c379a000000000000000000000000000000000000000000000000000000000815260040161073a90611af0565b60405180910390fd5b6107b96040518060400160405280600981526020017f4163636f756e743a200000000000000000000000000000000000000000000000815250836040518060400160405280600f81526020017f206a757374207265636965766564200000000000000000000000000000000000815250866111a1565b505050565b60003390506108026040518060400160405280600b81526020017f53656e6465722069733a2000000000000000000000000000000000000000000081525082611243565b50565b60076020528060005260406000206000915054906101000a900460ff1681565b60008060008373ffffffffffffffffffffffffffffffffffffffff1673ffffffffffffffffffffffffffffffffffffffff168152602001908152602001600020549050919050565b610875611123565b61087f60006112df565b565b66038d7ea4c6800081565b6000600560009054906101000a900473ffffffffffffffffffffffffffffffffffffffff16905090565b6060600480546108c590611938565b80601f01602080910402602001604051908101604052809291908181526020018280546108f190611938565b801561093e5780601f106109135761010080835404028352916020019161093e565b820191906000526020600020905b81548152906001019060200180831161092157829003601f168201915b5050505050905090565b60008166038d7ea4c6800061095d9190611b10565b9050803410156109a2576040517f08c379a000000000000000000000000000000000000000000000000000000000815260040161099990611b9e565b60405180910390fd5b6000670de0b6b3a7640000836109b89190611b10565b905069021e19e0c9bab2400000816109ce6105b6565b6109d89190611998565b1115610a19576040517f08c379a0000000000000000000000000000000000000000000000000000000008152600401610a1090611c30565b60405180910390fd5b610a2333826113a5565b610a99336040518060400160405280600a81526020017f206a75737420676f742000000000000000000000000000000000000000000000815250856040518060400160405280600781526020017f20746f6b656e73000000000000000000000000000000000000000000000000008152506114fb565b505050565b600080610aa9610c50565b90506000610ab78286610b38565b905083811015610afc576040517f08c379a0000000000000000000000000000000000000000000000000000000008152600401610af390611cc2565b60405180910390fd5b610b098286868403610c58565b60019250505092915050565b600080610b20610c50565b9050610b2d818585610ead565b600191505092915050565b6000600160008473ffffffffffffffffffffffffffffffffffffffff1673ffffffffffffffffffffffffffffffffffffffff16815260200190815260200160002060008373ffffffffffffffffffffffffffffffffffffffff1673ffffffffffffffffffffffffffffffffffffffff16815260200190815260200160002054905092915050565b69021e19e0c9bab240000081565b610bd5611123565b600073ffffffffffffffffffffffffffffffffffffffff168173ffffffffffffffffffffffffffffffffffffffff1603610c44576040517f08c379a0000000000000000000000000000000000000000000000000000000008152600401610c3b90611d54565b60405180910390fd5b610c4d816112df565b50565b600033905090565b600073ffffffffffffffffffffffffffffffffffffffff168373ffffffffffffffffffffffffffffffffffffffff1603610cc7576040517f08c379a0000000000000000000000000000000000000000000000000000000008152600401610cbe90611de6565b60405180910390fd5b600073ffffffffffffffffffffffffffffffffffffffff168273ffffffffffffffffffffffffffffffffffffffff1603610d36576040517f08c379a0000000000000000000000000000000000000000000000000000000008152600401610d2d90611e78565b60405180910390fd5b80600160008573ffffffffffffffffffffffffffffffffffffffff1673ffffffffffffffffffffffffffffffffffffffff16815260200190815260200160002060008473ffffffffffffffffffffffffffffffffffffffff1673ffffffffffffffffffffffffffffffffffffffff168152602001908152602001600020819055508173ffffffffffffffffffffffffffffffffffffffff168373ffffffffffffffffffffffffffffffffffffffff167f8c5be1e5ebec7d5bd14f71427d1e84f3dd0314c0f7b2291e5b200ac8c7c3b92583604051610e1491906117a0565b60405180910390a3505050565b6000610e2d8484610b38565b90507fffffffffffffffffffffffffffffffffffffffffffffffffffffffffffffffff8114610ea75781811015610e99576040517f08c379a0000000000000000000000000000000000000000000000000000000008152600401610e9090611ee4565b60405180910390fd5b610ea68484848403610c58565b5b50505050565b600073ffffffffffffffffffffffffffffffffffffffff168373ffffffffffffffffffffffffffffffffffffffff1603610f1c576040517f08c379a0000000000000000000000000000000000000000000000000000000008152600401610f1390611f76565b60405180910390fd5b600073ffffffffffffffffffffffffffffffffffffffff168273ffffffffffffffffffffffffffffffffffffffff1603610f8b576040517f08c379a0000000000000000000000000000000000000000000000000000000008152600401610f8290612008565b60405180910390fd5b610f9683838361159d565b60008060008573ffffffffffffffffffffffffffffffffffffffff1673ffffffffffffffffffffffffffffffffffffffff1681526020019081526020016000205490508181101561101c576040517f08c379a00000000000000000000000000000000000000000000000000000000081526004016110139061209a565b60405180910390fd5b8181036000808673ffffffffffffffffffffffffffffffffffffffff1673ffffffffffffffffffffffffffffffffffffffff16815260200190815260200160002081905550816000808573ffffffffffffffffffffffffffffffffffffffff1673ffffffffffffffffffffffffffffffffffffffff168152602001908152602001600020600082825401925050819055508273ffffffffffffffffffffffffffffffffffffffff168473ffffffffffffffffffffffffffffffffffffffff167fddf252ad1be2c89b69c2b068fc378daa952ba7f163c4a11628f55a4df523b3ef8460405161110a91906117a0565b60405180910390a361111d8484846115a2565b50505050565b61112b610c50565b73ffffffffffffffffffffffffffffffffffffffff1661114961088c565b73ffffffffffffffffffffffffffffffffffffffff161461119f576040517f08c379a000000000000000000000000000000000000000000000000000000000815260040161119690612106565b60405180910390fd5b565b61123d848484846040516024016111bb9493929190612126565b6040516020818303038152906040527f91d1112e000000000000000000000000000000000000000000000000000000007bffffffffffffffffffffffffffffffffffffffffffffffffffffffff19166020820180517bffffffffffffffffffffffffffffffffffffffffffffffffffffffff83818316178352505050506115a7565b50505050565b6112db8282604051602401611259929190612179565b6040516020818303038152906040527f319af333000000000000000000000000000000000000000000000000000000007bffffffffffffffffffffffffffffffffffffffffffffffffffffffff19166020820180517bffffffffffffffffffffffffffffffffffffffffffffffffffffffff83818316178352505050506115a7565b5050565b6000600560009054906101000a900473ffffffffffffffffffffffffffffffffffffffff16905081600560006101000a81548173ffffffffffffffffffffffffffffffffffffffff021916908373ffffffffffffffffffffffffffffffffffffffff1602179055508173ffffffffffffffffffffffffffffffffffffffff168173ffffffffffffffffffffffffffffffffffffffff167f8be0079c531659141344cd1fd0a4f28419497f9722a3daafe3b4186f6b6457e060405160405180910390a35050565b600073ffffffffffffffffffffffffffffffffffffffff168273ffffffffffffffffffffffffffffffffffffffff1603611414576040517f08c379a000000000000000000000000000000000000000000000000000000000815260040161140b906121f5565b60405180910390fd5b6114206000838361159d565b80600260008282546114329190611998565b92505081905550806000808473ffffffffffffffffffffffffffffffffffffffff1673ffffffffffffffffffffffffffffffffffffffff168152602001908152602001600020600082825401925050819055508173ffffffffffffffffffffffffffffffffffffffff16600073ffffffffffffffffffffffffffffffffffffffff167fddf252ad1be2c89b69c2b068fc378daa952ba7f163c4a11628f55a4df523b3ef836040516114e391906117a0565b60405180910390a36114f7600083836115a2565b5050565b611597848484846040516024016115159493929190612215565b6040516020818303038152906040527f448830a8000000000000000000000000000000000000000000000000000000007bffffffffffffffffffffffffffffffffffffffffffffffffffffffff19166020820180517bffffffffffffffffffffffffffffffffffffffffffffffffffffffff83818316178352505050506115a7565b50505050565b505050565b505050565b60008151905060006a636f6e736f6c652e6c6f679050602083016000808483855afa5050505050565b600081519050919050565b600082825260208201905092915050565b60005b8381101561160a5780820151818401526020810190506115ef565b60008484015250505050565b6000601f19601f8301169050919050565b6000611632826115d0565b61163c81856115db565b935061164c8185602086016115ec565b61165581611616565b840191505092915050565b6000602082019050818103600083015261167a8184611627565b905092915050565b600080fd5b600073ffffffffffffffffffffffffffffffffffffffff82169050919050565b60006116b282611687565b9050919050565b6116c2816116a7565b81146116cd57600080fd5b50565b6000813590506116df816116b9565b92915050565b6000819050919050565b6116f8816116e5565b811461170357600080fd5b50565b600081359050611715816116ef565b92915050565b6000806040838503121561173257611731611682565b5b6000611740858286016116d0565b925050602061175185828601611706565b9150509250929050565b60008115159050919050565b6117708161175b565b82525050565b600060208201905061178b6000830184611767565b92915050565b61179a816116e5565b82525050565b60006020820190506117b56000830184611791565b92915050565b6000806000606084860312156117d4576117d3611682565b5b60006117e2868287016116d0565b93505060206117f3868287016116d0565b925050604061180486828701611706565b9150509250925092565b600060ff82169050919050565b6118248161180e565b82525050565b600060208201905061183f600083018461181b565b92915050565b60006020828403121561185b5761185a611682565b5b600061186984828501611706565b91505092915050565b60006020828403121561188857611887611682565b5b6000611896848285016116d0565b91505092915050565b6118a8816116a7565b82525050565b60006020820190506118c3600083018461189f565b92915050565b600080604083850312156118e0576118df611682565b5b60006118ee858286016116d0565b92505060206118ff858286016116d0565b9150509250929050565b7f4e487b7100000000000000000000000000000000000000000000000000000000600052602260045260246000fd5b6000600282049050600182168061195057607f821691505b60208210810361196357611962611909565b5b50919050565b7f4e487b7100000000000000000000000000000000000000000000000000000000600052601160045260246000fd5b60006119a3826116e5565b91506119ae836116e5565b92508282019050808211156119c6576119c5611969565b5b92915050565b7f4e6f7468696e6720696e20746865206163636f756e7420746f2077697468647260008201527f6177000000000000000000000000000000000000000000000000000000000000602082015250565b6000611a286022836115db565b9150611a33826119cc565b604082019050919050565b60006020820190508181036000830152611a5781611a1b565b9050919050565b600081905092915050565b50565b6000611a79600083611a5e565b9150611a8482611a69565b600082019050919050565b6000611a9a82611a6c565b9150819050919050565b7f46616c69656420746f207472616e7366657220616d6f756e7400000000000000600082015250565b6000611ada6019836115db565b9150611ae582611aa4565b602082019050919050565b60006020820190508181036000830152611b0981611acd565b9050919050565b6000611b1b826116e5565b9150611b26836116e5565b9250828202611b34816116e5565b91508282048414831517611b4b57611b4a611969565b5b5092915050565b7f45746865722073656e74206973206e6f7420656e6f7567682100000000000000600082015250565b6000611b886019836115db565b9150611b9382611b52565b602082019050919050565b60006020820190508181036000830152611bb781611b7b565b9050919050565b7f416d6f756e742065786365656473206d6178696d756d20746f74616c2073757060008201527f706c790000000000000000000000000000000000000000000000000000000000602082015250565b6000611c1a6023836115db565b9150611c2582611bbe565b604082019050919050565b60006020820190508181036000830152611c4981611c0d565b9050919050565b7f45524332303a2064656372656173656420616c6c6f77616e63652062656c6f7760008201527f207a65726f000000000000000000000000000000000000000000000000000000602082015250565b6000611cac6025836115db565b9150611cb782611c50565b604082019050919050565b60006020820190508181036000830152611cdb81611c9f565b9050919050565b7f4f776e61626c653a206e6577206f776e657220697320746865207a65726f206160008201527f6464726573730000000000000000000000000000000000000000000000000000602082015250565b6000611d3e6026836115db565b9150611d4982611ce2565b604082019050919050565b60006020820190508181036000830152611d6d81611d31565b9050919050565b7f45524332303a20617070726f76652066726f6d20746865207a65726f2061646460008201527f7265737300000000000000000000000000000000000000000000000000000000602082015250565b6000611dd06024836115db565b9150611ddb82611d74565b604082019050919050565b60006020820190508181036000830152611dff81611dc3565b9050919050565b7f45524332303a20617070726f766520746f20746865207a65726f20616464726560008201527f7373000000000000000000000000000000000000000000000000000000000000602082015250565b6000611e626022836115db565b9150611e6d82611e06565b604082019050919050565b60006020820190508181036000830152611e9181611e55565b9050919050565b7f45524332303a20696e73756666696369656e7420616c6c6f77616e6365000000600082015250565b6000611ece601d836115db565b9150611ed982611e98565b602082019050919050565b60006020820190508181036000830152611efd81611ec1565b9050919050565b7f45524332303a207472616e736665722066726f6d20746865207a65726f20616460008201527f6472657373000000000000000000000000000000000000000000000000000000602082015250565b6000611f606025836115db565b9150611f6b82611f04565b604082019050919050565b60006020820190508181036000830152611f8f81611f53565b9050919050565b7f45524332303a207472616e7366657220746f20746865207a65726f206164647260008201527f6573730000000000000000000000000000000000000000000000000000000000602082015250565b6000611ff26023836115db565b9150611ffd82611f96565b604082019050919050565b6000602082019050818103600083015261202181611fe5565b9050919050565b7f45524332303a207472616e7366657220616d6f756e742065786365656473206260008201527f616c616e63650000000000000000000000000000000000000000000000000000602082015250565b60006120846026836115db565b915061208f82612028565b604082019050919050565b600060208201905081810360008301526120b381612077565b9050919050565b7f4f776e61626c653a2063616c6c6572206973206e6f7420746865206f776e6572600082015250565b60006120f06020836115db565b91506120fb826120ba565b602082019050919050565b6000602082019050818103600083015261211f816120e3565b9050919050565b600060808201905081810360008301526121408187611627565b905061214f602083018661189f565b81810360408301526121618185611627565b90506121706060830184611791565b95945050505050565b600060408201905081810360008301526121938185611627565b90506121a2602083018461189f565b9392505050565b7f45524332303a206d696e7420746f20746865207a65726f206164647265737300600082015250565b60006121df601f836115db565b91506121ea826121a9565b602082019050919050565b6000602082019050818103600083015261220e816121d2565b9050919050565b600060808201905061222a600083018761189f565b818103602083015261223c8186611627565b905061224b6040830185611791565b818103606083015261225d8184611627565b90509594505050505056fea2646970667358221220df3007ac0e108bcec189f80017ed31fe74617b75860625cd25cba0a6cb0b50fa64736f6c63430008110033",
    "linkReferences": {},
    "deployedLinkReferences": {}
}