{
  "_format": "hh-sol-artifact-1",
  "contractName": "MoensToken",
  "sourceName": "contracts/MoensToken.sol",
  "abi": [
    {
      "inputs": [
        {
          "internalType": "address",
          "name": "_MoensNftContract",
          "type": "address"
        }
      ],
      "stateMutability": "nonpayable",
      "type": "constructor"
    },
    {
      "anonymous": false,
      "inputs": [
        {
          "indexed": true,
          "internalType": "address",
          "name": "owner",
          "type": "address"
        },
        {
          "indexed": true,
          "internalType": "address",
          "name": "spender",
          "type": "address"
        },
        {
          "indexed": false,
          "internalType": "uint256",
          "name": "value",
          "type": "uint256"
        }
      ],
      "name": "Approval",
      "type": "event"
    },
    {
      "anonymous": false,
      "inputs": [
        {
          "indexed": true,
          "internalType": "address",
          "name": "previousOwner",
          "type": "address"
        },
        {
          "indexed": true,
          "internalType": "address",
          "name": "newOwner",
          "type": "address"
        }
      ],
      "name": "OwnershipTransferred",
      "type": "event"
    },
    {
      "anonymous": false,
      "inputs": [
        {
          "indexed": true,
          "internalType": "address",
          "name": "from",
          "type": "address"
        },
        {
          "indexed": true,
          "internalType": "address",
          "name": "to",
          "type": "address"
        },
        {
          "indexed": false,
          "internalType": "uint256",
          "name": "value",
          "type": "uint256"
        }
      ],
      "name": "Transfer",
      "type": "event"
    },
    {
      "stateMutability": "payable",
      "type": "fallback"
    },
    {
      "inputs": [
        {
          "internalType": "address",
          "name": "owner",
          "type": "address"
        },
        {
          "internalType": "address",
          "name": "spender",
          "type": "address"
        }
      ],
      "name": "allowance",
      "outputs": [
        {
          "internalType": "uint256",
          "name": "",
          "type": "uint256"
        }
      ],
      "stateMutability": "view",
      "type": "function"
    },
    {
      "inputs": [
        {
          "internalType": "address",
          "name": "spender",
          "type": "address"
        },
        {
          "internalType": "uint256",
          "name": "amount",
          "type": "uint256"
        }
      ],
      "name": "approve",
      "outputs": [
        {
          "internalType": "bool",
          "name": "",
          "type": "bool"
        }
      ],
      "stateMutability": "nonpayable",
      "type": "function"
    },
    {
      "inputs": [
        {
          "internalType": "address",
          "name": "account",
          "type": "address"
        }
      ],
      "name": "balanceOf",
      "outputs": [
        {
          "internalType": "uint256",
          "name": "",
          "type": "uint256"
        }
      ],
      "stateMutability": "view",
      "type": "function"
    },
    {
      "inputs": [],
      "name": "claim",
      "outputs": [],
      "stateMutability": "nonpayable",
      "type": "function"
    },
    {
      "inputs": [],
      "name": "decimals",
      "outputs": [
        {
          "internalType": "uint8",
          "name": "",
          "type": "uint8"
        }
      ],
      "stateMutability": "view",
      "type": "function"
    },
    {
      "inputs": [
        {
          "internalType": "address",
          "name": "spender",
          "type": "address"
        },
        {
          "internalType": "uint256",
          "name": "subtractedValue",
          "type": "uint256"
        }
      ],
      "name": "decreaseAllowance",
      "outputs": [
        {
          "internalType": "bool",
          "name": "",
          "type": "bool"
        }
      ],
      "stateMutability": "nonpayable",
      "type": "function"
    },
    {
      "inputs": [
        {
          "internalType": "address",
          "name": "spender",
          "type": "address"
        },
        {
          "internalType": "uint256",
          "name": "addedValue",
          "type": "uint256"
        }
      ],
      "name": "increaseAllowance",
      "outputs": [
        {
          "internalType": "bool",
          "name": "",
          "type": "bool"
        }
      ],
      "stateMutability": "nonpayable",
      "type": "function"
    },
    {
      "inputs": [],
      "name": "maxTotalSuppy",
      "outputs": [
        {
          "internalType": "uint256",
          "name": "",
          "type": "uint256"
        }
      ],
      "stateMutability": "view",
      "type": "function"
    },
    {
      "inputs": [
        {
          "internalType": "uint256",
          "name": "amount",
          "type": "uint256"
        }
      ],
      "name": "mint",
      "outputs": [],
      "stateMutability": "payable",
      "type": "function"
    },
    {
      "inputs": [],
      "name": "name",
      "outputs": [
        {
          "internalType": "string",
          "name": "",
          "type": "string"
        }
      ],
      "stateMutability": "view",
      "type": "function"
    },
    {
      "inputs": [],
      "name": "nftsRemaining",
      "outputs": [
        {
          "internalType": "uint256",
          "name": "",
          "type": "uint256"
        }
      ],
      "stateMutability": "view",
      "type": "function"
    },
    {
      "inputs": [],
      "name": "owner",
      "outputs": [
        {
          "internalType": "address",
          "name": "",
          "type": "address"
        }
      ],
      "stateMutability": "view",
      "type": "function"
    },
    {
      "inputs": [],
      "name": "remainingSupply",
      "outputs": [
        {
          "internalType": "uint256",
          "name": "",
          "type": "uint256"
        }
      ],
      "stateMutability": "view",
      "type": "function"
    },
    {
      "inputs": [],
      "name": "renounceOwnership",
      "outputs": [],
      "stateMutability": "nonpayable",
      "type": "function"
    },
    {
      "inputs": [],
      "name": "symbol",
      "outputs": [
        {
          "internalType": "string",
          "name": "",
          "type": "string"
        }
      ],
      "stateMutability": "view",
      "type": "function"
    },
    {
      "inputs": [
        {
          "internalType": "uint256",
          "name": "",
          "type": "uint256"
        }
      ],
      "name": "tokenIdsClaimed",
      "outputs": [
        {
          "internalType": "bool",
          "name": "",
          "type": "bool"
        }
      ],
      "stateMutability": "view",
      "type": "function"
    },
    {
      "inputs": [],
      "name": "tokenPerNft",
      "outputs": [
        {
          "internalType": "uint256",
          "name": "",
          "type": "uint256"
        }
      ],
      "stateMutability": "view",
      "type": "function"
    },
    {
      "inputs": [],
      "name": "tokenPrice",
      "outputs": [
        {
          "internalType": "uint256",
          "name": "",
          "type": "uint256"
        }
      ],
      "stateMutability": "view",
      "type": "function"
    },
    {
      "inputs": [],
      "name": "totalSupply",
      "outputs": [
        {
          "internalType": "uint256",
          "name": "",
          "type": "uint256"
        }
      ],
      "stateMutability": "view",
      "type": "function"
    },
    {
      "inputs": [
        {
          "internalType": "address",
          "name": "to",
          "type": "address"
        },
        {
          "internalType": "uint256",
          "name": "amount",
          "type": "uint256"
        }
      ],
      "name": "transfer",
      "outputs": [
        {
          "internalType": "bool",
          "name": "",
          "type": "bool"
        }
      ],
      "stateMutability": "nonpayable",
      "type": "function"
    },
    {
      "inputs": [
        {
          "internalType": "address",
          "name": "from",
          "type": "address"
        },
        {
          "internalType": "address",
          "name": "to",
          "type": "address"
        },
        {
          "internalType": "uint256",
          "name": "amount",
          "type": "uint256"
        }
      ],
      "name": "transferFrom",
      "outputs": [
        {
          "internalType": "bool",
          "name": "",
          "type": "bool"
        }
      ],
      "stateMutability": "nonpayable",
      "type": "function"
    },
    {
      "inputs": [
        {
          "internalType": "address",
          "name": "newOwner",
          "type": "address"
        }
      ],
      "name": "transferOwnership",
      "outputs": [],
      "stateMutability": "nonpayable",
      "type": "function"
    },
    {
      "inputs": [],
      "name": "withdraw",
      "outputs": [],
      "stateMutability": "nonpayable",
      "type": "function"
    },
    {
      "stateMutability": "payable",
      "type": "receive"
    }
  ],
  "bytecode": "0x60806040523480156200001157600080fd5b5060405162002c1438038062002c14833981810160405281019062000037919062000269565b6040518060400160405280600b81526020017f4d6f656e7320546f6b656e0000000000000000000000000000000000000000008152506040518060400160405280600381526020017f4d544b00000000000000000000000000000000000000000000000000000000008152508160039081620000b4919062000515565b508060049081620000c6919062000515565b505050620000e9620000dd6200013160201b60201c565b6200013960201b60201c565b80600760006101000a81548173ffffffffffffffffffffffffffffffffffffffff021916908373ffffffffffffffffffffffffffffffffffffffff16021790555050620005fc565b600033905090565b6000600560009054906101000a900473ffffffffffffffffffffffffffffffffffffffff16905081600560006101000a81548173ffffffffffffffffffffffffffffffffffffffff021916908373ffffffffffffffffffffffffffffffffffffffff1602179055508173ffffffffffffffffffffffffffffffffffffffff168173ffffffffffffffffffffffffffffffffffffffff167f8be0079c531659141344cd1fd0a4f28419497f9722a3daafe3b4186f6b6457e060405160405180910390a35050565b600080fd5b600073ffffffffffffffffffffffffffffffffffffffff82169050919050565b6000620002318262000204565b9050919050565b620002438162000224565b81146200024f57600080fd5b50565b600081519050620002638162000238565b92915050565b600060208284031215620002825762000281620001ff565b5b6000620002928482850162000252565b91505092915050565b600081519050919050565b7f4e487b7100000000000000000000000000000000000000000000000000000000600052604160045260246000fd5b7f4e487b7100000000000000000000000000000000000000000000000000000000600052602260045260246000fd5b600060028204905060018216806200031d57607f821691505b602082108103620003335762000332620002d5565b5b50919050565b60008190508160005260206000209050919050565b60006020601f8301049050919050565b600082821b905092915050565b6000600883026200039d7fffffffffffffffffffffffffffffffffffffffffffffffffffffffffffffffff826200035e565b620003a986836200035e565b95508019841693508086168417925050509392505050565b6000819050919050565b6000819050919050565b6000620003f6620003f0620003ea84620003c1565b620003cb565b620003c1565b9050919050565b6000819050919050565b6200041283620003d5565b6200042a6200042182620003fd565b8484546200036b565b825550505050565b600090565b6200044162000432565b6200044e81848462000407565b505050565b5b8181101562000476576200046a60008262000437565b60018101905062000454565b5050565b601f821115620004c5576200048f8162000339565b6200049a846200034e565b81016020851015620004aa578190505b620004c2620004b9856200034e565b83018262000453565b50505b505050565b600082821c905092915050565b6000620004ea60001984600802620004ca565b1980831691505092915050565b6000620005058383620004d7565b9150826002028217905092915050565b62000520826200029b565b67ffffffffffffffff8111156200053c576200053b620002a6565b5b62000548825462000304565b620005558282856200047a565b600060209050601f8311600181146200058d576000841562000578578287015190505b620005848582620004f7565b865550620005f4565b601f1984166200059d8662000339565b60005b82811015620005c757848901518255600182019150602085019450602081019050620005a0565b86831015620005e75784890151620005e3601f891682620004d7565b8355505b6001600288020188555050505b505050505050565b612608806200060c6000396000f3fe6080604052600436106101445760003560e01c806370a08231116100b6578063a457c2d71161006f578063a457c2d714610437578063a9059cbb14610474578063da0239a6146104b1578063dd62ed3e146104dc578063e27f091614610519578063f2fde38b146105445761014b565b806370a0823114610346578063715018a6146103835780637ff9b5961461039a5780638da5cb5b146103c557806395d89b41146103f0578063a0712d681461041b5761014b565b8063313ce56711610108578063313ce567146102485780633950935114610273578063398513c8146102b05780633ccfd60b146102db5780634e71d92d146102f25780635f3690af146103095761014b565b806306fdde031461014d578063095ea7b31461017857806318160ddd146101b557806323b872dd146101e05780632652a3711461021d5761014b565b3661014b57005b005b34801561015957600080fd5b5061016261056d565b60405161016f91906118d3565b60405180910390f35b34801561018457600080fd5b5061019f600480360381019061019a919061198e565b6105ff565b6040516101ac91906119e9565b60405180910390f35b3480156101c157600080fd5b506101ca610622565b6040516101d79190611a13565b60405180910390f35b3480156101ec57600080fd5b5061020760048036038101906102029190611a2e565b61062c565b60405161021491906119e9565b60405180910390f35b34801561022957600080fd5b5061023261065b565b60405161023f9190611a13565b60405180910390f35b34801561025457600080fd5b5061025d6106a7565b60405161026a9190611a9d565b60405180910390f35b34801561027f57600080fd5b5061029a6004803603810190610295919061198e565b6106b0565b6040516102a791906119e9565b60405180910390f35b3480156102bc57600080fd5b506102c56106e7565b6040516102d29190611a13565b60405180910390f35b3480156102e757600080fd5b506102f06106f3565b005b3480156102fe57600080fd5b50610307610876565b005b34801561031557600080fd5b50610330600480360381019061032b9190611ab8565b610aee565b60405161033d91906119e9565b60405180910390f35b34801561035257600080fd5b5061036d60048036038101906103689190611ae5565b610b0e565b60405161037a9190611a13565b60405180910390f35b34801561038f57600080fd5b50610398610b56565b005b3480156103a657600080fd5b506103af610b6a565b6040516103bc9190611a13565b60405180910390f35b3480156103d157600080fd5b506103da610b75565b6040516103e79190611b21565b60405180910390f35b3480156103fc57600080fd5b50610405610b9f565b60405161041291906118d3565b60405180910390f35b61043560048036038101906104309190611ab8565b610c31565b005b34801561044357600080fd5b5061045e6004803603810190610459919061198e565b610d11565b60405161046b91906119e9565b60405180910390f35b34801561048057600080fd5b5061049b6004803603810190610496919061198e565b610d88565b6040516104a891906119e9565b60405180910390f35b3480156104bd57600080fd5b506104c6610dab565b6040516104d39190611a13565b60405180910390f35b3480156104e857600080fd5b5061050360048036038101906104fe9190611b3c565b610db1565b6040516105109190611a13565b60405180910390f35b34801561052557600080fd5b5061052e610e38565b60405161053b9190611a13565b60405180910390f35b34801561055057600080fd5b5061056b60048036038101906105669190611ae5565b610e46565b005b60606003805461057c90611bab565b80601f01602080910402602001604051908101604052809291908181526020018280546105a890611bab565b80156105f55780601f106105ca576101008083540402835291602001916105f5565b820191906000526020600020905b8154815290600101906020018083116105d857829003601f168201915b5050505050905090565b60008061060a610ec9565b9050610617818585610ed1565b600191505092915050565b6000600254905090565b600080610637610ec9565b905061064485828561109a565b61064f858585611126565b60019150509392505050565b600080600a60003373ffffffffffffffffffffffffffffffffffffffff1673ffffffffffffffffffffffffffffffffffffffff1681526020019081526020016000205490508091505090565b60006012905090565b6000806106bb610ec9565b90506106dc8185856106cd8589610db1565b6106d79190611c0b565b610ed1565b600191505092915050565b678ac7230489e8000081565b6106fb61139c565b600047905060008111610743576040517f08c379a000000000000000000000000000000000000000000000000000000000815260040161073a90611cb1565b60405180910390fd5b600061074d610b75565b905060008173ffffffffffffffffffffffffffffffffffffffff168360405161077590611d02565b60006040518083038185875af1925050503d80600081146107b2576040519150601f19603f3d011682016040523d82523d6000602084013e6107b7565b606091505b50509050806107fb576040517f08c379a00000000000000000000000000000000000000000000000000000000081526004016107f290611d63565b60405180910390fd5b6108716040518060400160405280600981526020017f4163636f756e743a200000000000000000000000000000000000000000000000815250836040518060400160405280600f81526020017f206a7573742072656369657665642000000000000000000000000000000000008152508661141a565b505050565b60003390506108ba6040518060400160405280600b81526020017f53656e6465722069733a20000000000000000000000000000000000000000000815250826114bc565b6000600760009054906101000a900473ffffffffffffffffffffffffffffffffffffffff1673ffffffffffffffffffffffffffffffffffffffff166370a08231836040518263ffffffff1660e01b81526004016109179190611b21565b602060405180830381865afa158015610934573d6000803e3d6000fd5b505050506040513d601f19601f820116820180604052508101906109589190611d98565b90506109996040518060400160405280600c81526020017f42616c616e63652069733a20000000000000000000000000000000000000000081525082611558565b600081116109dc576040517f08c379a00000000000000000000000000000000000000000000000000000000081526004016109d390611e11565b60405180910390fd5b60011515600960008473ffffffffffffffffffffffffffffffffffffffff1673ffffffffffffffffffffffffffffffffffffffff16815260200190815260200160002060009054906101000a900460ff16151503610a6f576040517f08c379a0000000000000000000000000000000000000000000000000000000008152600401610a6690611e7d565b60405180910390fd5b6000678ac7230489e8000082610a859190611e9d565b90506001600960008573ffffffffffffffffffffffffffffffffffffffff1673ffffffffffffffffffffffffffffffffffffffff16815260200190815260200160002060006101000a81548160ff021916908315150217905550610ae933826115f4565b505050565b600b6020528060005260406000206000915054906101000a900460ff1681565b60008060008373ffffffffffffffffffffffffffffffffffffffff1673ffffffffffffffffffffffffffffffffffffffff168152602001908152602001600020549050919050565b610b5e61139c565b610b68600061174a565b565b66038d7ea4c6800081565b6000600560009054906101000a900473ffffffffffffffffffffffffffffffffffffffff16905090565b606060048054610bae90611bab565b80601f0160208091040260200160405190810160405280929190818152602001828054610bda90611bab565b8015610c275780601f10610bfc57610100808354040283529160200191610c27565b820191906000526020600020905b815481529060010190602001808311610c0a57829003601f168201915b5050505050905090565b60008166038d7ea4c68000610c469190611e9d565b905080341015610c8b576040517f08c379a0000000000000000000000000000000000000000000000000000000008152600401610c8290611f2b565b60405180910390fd5b6000670de0b6b3a764000083610ca19190611e9d565b905069021e19e0c9bab240000081610cb7610622565b610cc19190611c0b565b1115610d02576040517f08c379a0000000000000000000000000000000000000000000000000000000008152600401610cf990611fbd565b60405180910390fd5b610d0c33826115f4565b505050565b600080610d1c610ec9565b90506000610d2a8286610db1565b905083811015610d6f576040517f08c379a0000000000000000000000000000000000000000000000000000000008152600401610d669061204f565b60405180910390fd5b610d7c8286868403610ed1565b60019250505092915050565b600080610d93610ec9565b9050610da0818585611126565b600191505092915050565b60065481565b6000600160008473ffffffffffffffffffffffffffffffffffffffff1673ffffffffffffffffffffffffffffffffffffffff16815260200190815260200160002060008373ffffffffffffffffffffffffffffffffffffffff1673ffffffffffffffffffffffffffffffffffffffff16815260200190815260200160002054905092915050565b69021e19e0c9bab240000081565b610e4e61139c565b600073ffffffffffffffffffffffffffffffffffffffff168173ffffffffffffffffffffffffffffffffffffffff1603610ebd576040517f08c379a0000000000000000000000000000000000000000000000000000000008152600401610eb4906120e1565b60405180910390fd5b610ec68161174a565b50565b600033905090565b600073ffffffffffffffffffffffffffffffffffffffff168373ffffffffffffffffffffffffffffffffffffffff1603610f40576040517f08c379a0000000000000000000000000000000000000000000000000000000008152600401610f3790612173565b60405180910390fd5b600073ffffffffffffffffffffffffffffffffffffffff168273ffffffffffffffffffffffffffffffffffffffff1603610faf576040517f08c379a0000000000000000000000000000000000000000000000000000000008152600401610fa690612205565b60405180910390fd5b80600160008573ffffffffffffffffffffffffffffffffffffffff1673ffffffffffffffffffffffffffffffffffffffff16815260200190815260200160002060008473ffffffffffffffffffffffffffffffffffffffff1673ffffffffffffffffffffffffffffffffffffffff168152602001908152602001600020819055508173ffffffffffffffffffffffffffffffffffffffff168373ffffffffffffffffffffffffffffffffffffffff167f8c5be1e5ebec7d5bd14f71427d1e84f3dd0314c0f7b2291e5b200ac8c7c3b9258360405161108d9190611a13565b60405180910390a3505050565b60006110a68484610db1565b90507fffffffffffffffffffffffffffffffffffffffffffffffffffffffffffffffff81146111205781811015611112576040517f08c379a000000000000000000000000000000000000000000000000000000000815260040161110990612271565b60405180910390fd5b61111f8484848403610ed1565b5b50505050565b600073ffffffffffffffffffffffffffffffffffffffff168373ffffffffffffffffffffffffffffffffffffffff1603611195576040517f08c379a000000000000000000000000000000000000000000000000000000000815260040161118c90612303565b60405180910390fd5b600073ffffffffffffffffffffffffffffffffffffffff168273ffffffffffffffffffffffffffffffffffffffff1603611204576040517f08c379a00000000000000000000000000000000000000000000000000000000081526004016111fb90612395565b60405180910390fd5b61120f838383611810565b60008060008573ffffffffffffffffffffffffffffffffffffffff1673ffffffffffffffffffffffffffffffffffffffff16815260200190815260200160002054905081811015611295576040517f08c379a000000000000000000000000000000000000000000000000000000000815260040161128c90612427565b60405180910390fd5b8181036000808673ffffffffffffffffffffffffffffffffffffffff1673ffffffffffffffffffffffffffffffffffffffff16815260200190815260200160002081905550816000808573ffffffffffffffffffffffffffffffffffffffff1673ffffffffffffffffffffffffffffffffffffffff168152602001908152602001600020600082825401925050819055508273ffffffffffffffffffffffffffffffffffffffff168473ffffffffffffffffffffffffffffffffffffffff167fddf252ad1be2c89b69c2b068fc378daa952ba7f163c4a11628f55a4df523b3ef846040516113839190611a13565b60405180910390a3611396848484611815565b50505050565b6113a4610ec9565b73ffffffffffffffffffffffffffffffffffffffff166113c2610b75565b73ffffffffffffffffffffffffffffffffffffffff1614611418576040517f08c379a000000000000000000000000000000000000000000000000000000000815260040161140f90612493565b60405180910390fd5b565b6114b68484848460405160240161143494939291906124b3565b6040516020818303038152906040527f91d1112e000000000000000000000000000000000000000000000000000000007bffffffffffffffffffffffffffffffffffffffffffffffffffffffff19166020820180517bffffffffffffffffffffffffffffffffffffffffffffffffffffffff838183161783525050505061181a565b50505050565b61155482826040516024016114d2929190612506565b6040516020818303038152906040527f319af333000000000000000000000000000000000000000000000000000000007bffffffffffffffffffffffffffffffffffffffffffffffffffffffff19166020820180517bffffffffffffffffffffffffffffffffffffffffffffffffffffffff838183161783525050505061181a565b5050565b6115f0828260405160240161156e929190612536565b6040516020818303038152906040527fb60e72cc000000000000000000000000000000000000000000000000000000007bffffffffffffffffffffffffffffffffffffffffffffffffffffffff19166020820180517bffffffffffffffffffffffffffffffffffffffffffffffffffffffff838183161783525050505061181a565b5050565b600073ffffffffffffffffffffffffffffffffffffffff168273ffffffffffffffffffffffffffffffffffffffff1603611663576040517f08c379a000000000000000000000000000000000000000000000000000000000815260040161165a906125b2565b60405180910390fd5b61166f60008383611810565b80600260008282546116819190611c0b565b92505081905550806000808473ffffffffffffffffffffffffffffffffffffffff1673ffffffffffffffffffffffffffffffffffffffff168152602001908152602001600020600082825401925050819055508173ffffffffffffffffffffffffffffffffffffffff16600073ffffffffffffffffffffffffffffffffffffffff167fddf252ad1be2c89b69c2b068fc378daa952ba7f163c4a11628f55a4df523b3ef836040516117329190611a13565b60405180910390a361174660008383611815565b5050565b6000600560009054906101000a900473ffffffffffffffffffffffffffffffffffffffff16905081600560006101000a81548173ffffffffffffffffffffffffffffffffffffffff021916908373ffffffffffffffffffffffffffffffffffffffff1602179055508173ffffffffffffffffffffffffffffffffffffffff168173ffffffffffffffffffffffffffffffffffffffff167f8be0079c531659141344cd1fd0a4f28419497f9722a3daafe3b4186f6b6457e060405160405180910390a35050565b505050565b505050565b60008151905060006a636f6e736f6c652e6c6f679050602083016000808483855afa5050505050565b600081519050919050565b600082825260208201905092915050565b60005b8381101561187d578082015181840152602081019050611862565b60008484015250505050565b6000601f19601f8301169050919050565b60006118a582611843565b6118af818561184e565b93506118bf81856020860161185f565b6118c881611889565b840191505092915050565b600060208201905081810360008301526118ed818461189a565b905092915050565b600080fd5b600073ffffffffffffffffffffffffffffffffffffffff82169050919050565b6000611925826118fa565b9050919050565b6119358161191a565b811461194057600080fd5b50565b6000813590506119528161192c565b92915050565b6000819050919050565b61196b81611958565b811461197657600080fd5b50565b60008135905061198881611962565b92915050565b600080604083850312156119a5576119a46118f5565b5b60006119b385828601611943565b92505060206119c485828601611979565b9150509250929050565b60008115159050919050565b6119e3816119ce565b82525050565b60006020820190506119fe60008301846119da565b92915050565b611a0d81611958565b82525050565b6000602082019050611a286000830184611a04565b92915050565b600080600060608486031215611a4757611a466118f5565b5b6000611a5586828701611943565b9350506020611a6686828701611943565b9250506040611a7786828701611979565b9150509250925092565b600060ff82169050919050565b611a9781611a81565b82525050565b6000602082019050611ab26000830184611a8e565b92915050565b600060208284031215611ace57611acd6118f5565b5b6000611adc84828501611979565b91505092915050565b600060208284031215611afb57611afa6118f5565b5b6000611b0984828501611943565b91505092915050565b611b1b8161191a565b82525050565b6000602082019050611b366000830184611b12565b92915050565b60008060408385031215611b5357611b526118f5565b5b6000611b6185828601611943565b9250506020611b7285828601611943565b9150509250929050565b7f4e487b7100000000000000000000000000000000000000000000000000000000600052602260045260246000fd5b60006002820490506001821680611bc357607f821691505b602082108103611bd657611bd5611b7c565b5b50919050565b7f4e487b7100000000000000000000000000000000000000000000000000000000600052601160045260246000fd5b6000611c1682611958565b9150611c2183611958565b9250828201905080821115611c3957611c38611bdc565b5b92915050565b7f4e6f7468696e6720696e20746865206163636f756e7420746f2077697468647260008201527f6177000000000000000000000000000000000000000000000000000000000000602082015250565b6000611c9b60228361184e565b9150611ca682611c3f565b604082019050919050565b60006020820190508181036000830152611cca81611c8e565b9050919050565b600081905092915050565b50565b6000611cec600083611cd1565b9150611cf782611cdc565b600082019050919050565b6000611d0d82611cdf565b9150819050919050565b7f46616c69656420746f207472616e7366657220616d6f756e7400000000000000600082015250565b6000611d4d60198361184e565b9150611d5882611d17565b602082019050919050565b60006020820190508181036000830152611d7c81611d40565b9050919050565b600081519050611d9281611962565b92915050565b600060208284031215611dae57611dad6118f5565b5b6000611dbc84828501611d83565b91505092915050565b7f596f7520646f206e6f74206f776e20616e79204d6f656e73204e465473000000600082015250565b6000611dfb601d8361184e565b9150611e0682611dc5565b602082019050919050565b60006020820190508181036000830152611e2a81611dee565b9050919050565b7f596f7527766520636c61696d656420616c6c20796f7572204e46547300000000600082015250565b6000611e67601c8361184e565b9150611e7282611e31565b602082019050919050565b60006020820190508181036000830152611e9681611e5a565b9050919050565b6000611ea882611958565b9150611eb383611958565b9250828202611ec181611958565b91508282048414831517611ed857611ed7611bdc565b5b5092915050565b7f45746865722073656e74206973206e6f7420656e6f7567682100000000000000600082015250565b6000611f1560198361184e565b9150611f2082611edf565b602082019050919050565b60006020820190508181036000830152611f4481611f08565b9050919050565b7f416d6f756e742065786365656473206d6178696d756d20746f74616c2073757060008201527f706c790000000000000000000000000000000000000000000000000000000000602082015250565b6000611fa760238361184e565b9150611fb282611f4b565b604082019050919050565b60006020820190508181036000830152611fd681611f9a565b9050919050565b7f45524332303a2064656372656173656420616c6c6f77616e63652062656c6f7760008201527f207a65726f000000000000000000000000000000000000000000000000000000602082015250565b600061203960258361184e565b915061204482611fdd565b604082019050919050565b600060208201905081810360008301526120688161202c565b9050919050565b7f4f776e61626c653a206e6577206f776e657220697320746865207a65726f206160008201527f6464726573730000000000000000000000000000000000000000000000000000602082015250565b60006120cb60268361184e565b91506120d68261206f565b604082019050919050565b600060208201905081810360008301526120fa816120be565b9050919050565b7f45524332303a20617070726f76652066726f6d20746865207a65726f2061646460008201527f7265737300000000000000000000000000000000000000000000000000000000602082015250565b600061215d60248361184e565b915061216882612101565b604082019050919050565b6000602082019050818103600083015261218c81612150565b9050919050565b7f45524332303a20617070726f766520746f20746865207a65726f20616464726560008201527f7373000000000000000000000000000000000000000000000000000000000000602082015250565b60006121ef60228361184e565b91506121fa82612193565b604082019050919050565b6000602082019050818103600083015261221e816121e2565b9050919050565b7f45524332303a20696e73756666696369656e7420616c6c6f77616e6365000000600082015250565b600061225b601d8361184e565b915061226682612225565b602082019050919050565b6000602082019050818103600083015261228a8161224e565b9050919050565b7f45524332303a207472616e736665722066726f6d20746865207a65726f20616460008201527f6472657373000000000000000000000000000000000000000000000000000000602082015250565b60006122ed60258361184e565b91506122f882612291565b604082019050919050565b6000602082019050818103600083015261231c816122e0565b9050919050565b7f45524332303a207472616e7366657220746f20746865207a65726f206164647260008201527f6573730000000000000000000000000000000000000000000000000000000000602082015250565b600061237f60238361184e565b915061238a82612323565b604082019050919050565b600060208201905081810360008301526123ae81612372565b9050919050565b7f45524332303a207472616e7366657220616d6f756e742065786365656473206260008201527f616c616e63650000000000000000000000000000000000000000000000000000602082015250565b600061241160268361184e565b915061241c826123b5565b604082019050919050565b6000602082019050818103600083015261244081612404565b9050919050565b7f4f776e61626c653a2063616c6c6572206973206e6f7420746865206f776e6572600082015250565b600061247d60208361184e565b915061248882612447565b602082019050919050565b600060208201905081810360008301526124ac81612470565b9050919050565b600060808201905081810360008301526124cd818761189a565b90506124dc6020830186611b12565b81810360408301526124ee818561189a565b90506124fd6060830184611a04565b95945050505050565b60006040820190508181036000830152612520818561189a565b905061252f6020830184611b12565b9392505050565b60006040820190508181036000830152612550818561189a565b905061255f6020830184611a04565b9392505050565b7f45524332303a206d696e7420746f20746865207a65726f206164647265737300600082015250565b600061259c601f8361184e565b91506125a782612566565b602082019050919050565b600060208201905081810360008301526125cb8161258f565b905091905056fea264697066735822122038738da3cb0d9cae2de2f4369d8988677979339edd387b42628b09cc85b3c4b864736f6c63430008110033",
  "linkReferences": {},
  "deployedLinkReferences": {}
}