{
  "_format": "hh-sol-artifact-1",
  "contractName": "MoensToken",
  "sourceName": "contracts/MoensToken.sol",
  "abi": [
    {
      "inputs": [
        {
          "internalType": "address",
          "name": "_MoensNftContract",
          "type": "address"
        }
      ],
      "stateMutability": "nonpayable",
      "type": "constructor"
    },
    {
      "anonymous": false,
      "inputs": [
        {
          "indexed": true,
          "internalType": "address",
          "name": "owner",
          "type": "address"
        },
        {
          "indexed": true,
          "internalType": "address",
          "name": "spender",
          "type": "address"
        },
        {
          "indexed": false,
          "internalType": "uint256",
          "name": "value",
          "type": "uint256"
        }
      ],
      "name": "Approval",
      "type": "event"
    },
    {
      "anonymous": false,
      "inputs": [
        {
          "indexed": true,
          "internalType": "address",
          "name": "previousOwner",
          "type": "address"
        },
        {
          "indexed": true,
          "internalType": "address",
          "name": "newOwner",
          "type": "address"
        }
      ],
      "name": "OwnershipTransferred",
      "type": "event"
    },
    {
      "anonymous": false,
      "inputs": [
        {
          "indexed": true,
          "internalType": "address",
          "name": "from",
          "type": "address"
        },
        {
          "indexed": true,
          "internalType": "address",
          "name": "to",
          "type": "address"
        },
        {
          "indexed": false,
          "internalType": "uint256",
          "name": "value",
          "type": "uint256"
        }
      ],
      "name": "Transfer",
      "type": "event"
    },
    {
      "stateMutability": "payable",
      "type": "fallback"
    },
    {
      "inputs": [
        {
          "internalType": "address",
          "name": "owner",
          "type": "address"
        },
        {
          "internalType": "address",
          "name": "spender",
          "type": "address"
        }
      ],
      "name": "allowance",
      "outputs": [
        {
          "internalType": "uint256",
          "name": "",
          "type": "uint256"
        }
      ],
      "stateMutability": "view",
      "type": "function"
    },
    {
      "inputs": [
        {
          "internalType": "address",
          "name": "spender",
          "type": "address"
        },
        {
          "internalType": "uint256",
          "name": "amount",
          "type": "uint256"
        }
      ],
      "name": "approve",
      "outputs": [
        {
          "internalType": "bool",
          "name": "",
          "type": "bool"
        }
      ],
      "stateMutability": "nonpayable",
      "type": "function"
    },
    {
      "inputs": [
        {
          "internalType": "address",
          "name": "account",
          "type": "address"
        }
      ],
      "name": "balanceOf",
      "outputs": [
        {
          "internalType": "uint256",
          "name": "",
          "type": "uint256"
        }
      ],
      "stateMutability": "view",
      "type": "function"
    },
    {
      "inputs": [],
      "name": "calculateRemainingSupply",
      "outputs": [
        {
          "internalType": "uint256",
          "name": "",
          "type": "uint256"
        }
      ],
      "stateMutability": "nonpayable",
      "type": "function"
    },
    {
      "inputs": [],
      "name": "claim",
      "outputs": [],
      "stateMutability": "nonpayable",
      "type": "function"
    },
    {
      "inputs": [],
      "name": "decimals",
      "outputs": [
        {
          "internalType": "uint8",
          "name": "",
          "type": "uint8"
        }
      ],
      "stateMutability": "view",
      "type": "function"
    },
    {
      "inputs": [
        {
          "internalType": "address",
          "name": "spender",
          "type": "address"
        },
        {
          "internalType": "uint256",
          "name": "subtractedValue",
          "type": "uint256"
        }
      ],
      "name": "decreaseAllowance",
      "outputs": [
        {
          "internalType": "bool",
          "name": "",
          "type": "bool"
        }
      ],
      "stateMutability": "nonpayable",
      "type": "function"
    },
    {
      "inputs": [
        {
          "internalType": "address",
          "name": "spender",
          "type": "address"
        },
        {
          "internalType": "uint256",
          "name": "addedValue",
          "type": "uint256"
        }
      ],
      "name": "increaseAllowance",
      "outputs": [
        {
          "internalType": "bool",
          "name": "",
          "type": "bool"
        }
      ],
      "stateMutability": "nonpayable",
      "type": "function"
    },
    {
      "inputs": [],
      "name": "maxTotalSuppy",
      "outputs": [
        {
          "internalType": "uint256",
          "name": "",
          "type": "uint256"
        }
      ],
      "stateMutability": "view",
      "type": "function"
    },
    {
      "inputs": [
        {
          "internalType": "uint256",
          "name": "amount",
          "type": "uint256"
        }
      ],
      "name": "mint",
      "outputs": [
        {
          "internalType": "uint256",
          "name": "",
          "type": "uint256"
        }
      ],
      "stateMutability": "payable",
      "type": "function"
    },
    {
      "inputs": [],
      "name": "name",
      "outputs": [
        {
          "internalType": "string",
          "name": "",
          "type": "string"
        }
      ],
      "stateMutability": "view",
      "type": "function"
    },
    {
      "inputs": [],
      "name": "owner",
      "outputs": [
        {
          "internalType": "address",
          "name": "",
          "type": "address"
        }
      ],
      "stateMutability": "view",
      "type": "function"
    },
    {
      "inputs": [],
      "name": "remainingSupply",
      "outputs": [
        {
          "internalType": "uint256",
          "name": "",
          "type": "uint256"
        }
      ],
      "stateMutability": "view",
      "type": "function"
    },
    {
      "inputs": [],
      "name": "renounceOwnership",
      "outputs": [],
      "stateMutability": "nonpayable",
      "type": "function"
    },
    {
      "inputs": [],
      "name": "symbol",
      "outputs": [
        {
          "internalType": "string",
          "name": "",
          "type": "string"
        }
      ],
      "stateMutability": "view",
      "type": "function"
    },
    {
      "inputs": [
        {
          "internalType": "uint256",
          "name": "",
          "type": "uint256"
        }
      ],
      "name": "tokenIdsClaimed",
      "outputs": [
        {
          "internalType": "bool",
          "name": "",
          "type": "bool"
        }
      ],
      "stateMutability": "view",
      "type": "function"
    },
    {
      "inputs": [],
      "name": "tokenPerNft",
      "outputs": [
        {
          "internalType": "uint256",
          "name": "",
          "type": "uint256"
        }
      ],
      "stateMutability": "view",
      "type": "function"
    },
    {
      "inputs": [],
      "name": "tokenPrice",
      "outputs": [
        {
          "internalType": "uint256",
          "name": "",
          "type": "uint256"
        }
      ],
      "stateMutability": "view",
      "type": "function"
    },
    {
      "inputs": [],
      "name": "totalSupply",
      "outputs": [
        {
          "internalType": "uint256",
          "name": "",
          "type": "uint256"
        }
      ],
      "stateMutability": "view",
      "type": "function"
    },
    {
      "inputs": [
        {
          "internalType": "address",
          "name": "to",
          "type": "address"
        },
        {
          "internalType": "uint256",
          "name": "amount",
          "type": "uint256"
        }
      ],
      "name": "transfer",
      "outputs": [
        {
          "internalType": "bool",
          "name": "",
          "type": "bool"
        }
      ],
      "stateMutability": "nonpayable",
      "type": "function"
    },
    {
      "inputs": [
        {
          "internalType": "address",
          "name": "from",
          "type": "address"
        },
        {
          "internalType": "address",
          "name": "to",
          "type": "address"
        },
        {
          "internalType": "uint256",
          "name": "amount",
          "type": "uint256"
        }
      ],
      "name": "transferFrom",
      "outputs": [
        {
          "internalType": "bool",
          "name": "",
          "type": "bool"
        }
      ],
      "stateMutability": "nonpayable",
      "type": "function"
    },
    {
      "inputs": [
        {
          "internalType": "address",
          "name": "newOwner",
          "type": "address"
        }
      ],
      "name": "transferOwnership",
      "outputs": [],
      "stateMutability": "nonpayable",
      "type": "function"
    },
    {
      "inputs": [],
      "name": "withdraw",
      "outputs": [],
      "stateMutability": "nonpayable",
      "type": "function"
    },
    {
      "stateMutability": "payable",
      "type": "receive"
    }
  ],
  "bytecode": "0x60806040523480156200001157600080fd5b5060405162002cd638038062002cd6833981810160405281019062000037919062000269565b6040518060400160405280600b81526020017f4d6f656e7320546f6b656e0000000000000000000000000000000000000000008152506040518060400160405280600381526020017f4d544b00000000000000000000000000000000000000000000000000000000008152508160039081620000b4919062000515565b508060049081620000c6919062000515565b505050620000e9620000dd6200013160201b60201c565b6200013960201b60201c565b80600760006101000a81548173ffffffffffffffffffffffffffffffffffffffff021916908373ffffffffffffffffffffffffffffffffffffffff16021790555050620005fc565b600033905090565b6000600560009054906101000a900473ffffffffffffffffffffffffffffffffffffffff16905081600560006101000a81548173ffffffffffffffffffffffffffffffffffffffff021916908373ffffffffffffffffffffffffffffffffffffffff1602179055508173ffffffffffffffffffffffffffffffffffffffff168173ffffffffffffffffffffffffffffffffffffffff167f8be0079c531659141344cd1fd0a4f28419497f9722a3daafe3b4186f6b6457e060405160405180910390a35050565b600080fd5b600073ffffffffffffffffffffffffffffffffffffffff82169050919050565b6000620002318262000204565b9050919050565b620002438162000224565b81146200024f57600080fd5b50565b600081519050620002638162000238565b92915050565b600060208284031215620002825762000281620001ff565b5b6000620002928482850162000252565b91505092915050565b600081519050919050565b7f4e487b7100000000000000000000000000000000000000000000000000000000600052604160045260246000fd5b7f4e487b7100000000000000000000000000000000000000000000000000000000600052602260045260246000fd5b600060028204905060018216806200031d57607f821691505b602082108103620003335762000332620002d5565b5b50919050565b60008190508160005260206000209050919050565b60006020601f8301049050919050565b600082821b905092915050565b6000600883026200039d7fffffffffffffffffffffffffffffffffffffffffffffffffffffffffffffffff826200035e565b620003a986836200035e565b95508019841693508086168417925050509392505050565b6000819050919050565b6000819050919050565b6000620003f6620003f0620003ea84620003c1565b620003cb565b620003c1565b9050919050565b6000819050919050565b6200041283620003d5565b6200042a6200042182620003fd565b8484546200036b565b825550505050565b600090565b6200044162000432565b6200044e81848462000407565b505050565b5b8181101562000476576200046a60008262000437565b60018101905062000454565b5050565b601f821115620004c5576200048f8162000339565b6200049a846200034e565b81016020851015620004aa578190505b620004c2620004b9856200034e565b83018262000453565b50505b505050565b600082821c905092915050565b6000620004ea60001984600802620004ca565b1980831691505092915050565b6000620005058383620004d7565b9150826002028217905092915050565b62000520826200029b565b67ffffffffffffffff8111156200053c576200053b620002a6565b5b62000548825462000304565b620005558282856200047a565b600060209050601f8311600181146200058d576000841562000578578287015190505b620005848582620004f7565b865550620005f4565b601f1984166200059d8662000339565b60005b82811015620005c757848901518255600182019150602085019450602081019050620005a0565b86831015620005e75784890151620005e3601f891682620004d7565b8355505b6001600288020188555050505b505050505050565b6126ca806200060c6000396000f3fe6080604052600436106101445760003560e01c806370a08231116100b6578063a457c2d71161006f578063a457c2d71461044b578063a9059cbb14610488578063da0239a6146104c5578063dd62ed3e146104f0578063e27f09161461052d578063f2fde38b146105585761014b565b806370a0823114610346578063715018a6146103835780637ff9b5961461039a5780638da5cb5b146103c557806395d89b41146103f0578063a0712d681461041b5761014b565b806339509351116101085780633950935114610248578063398513c8146102855780633ccfd60b146102b057806344b95867146102c75780634e71d92d146102f25780635f3690af146103095761014b565b806306fdde031461014d578063095ea7b31461017857806318160ddd146101b557806323b872dd146101e0578063313ce5671461021d5761014b565b3661014b57005b005b34801561015957600080fd5b50610162610581565b60405161016f9190611924565b60405180910390f35b34801561018457600080fd5b5061019f600480360381019061019a91906119df565b610613565b6040516101ac9190611a3a565b60405180910390f35b3480156101c157600080fd5b506101ca610636565b6040516101d79190611a64565b60405180910390f35b3480156101ec57600080fd5b5061020760048036038101906102029190611a7f565b610640565b6040516102149190611a3a565b60405180910390f35b34801561022957600080fd5b5061023261066f565b60405161023f9190611aee565b60405180910390f35b34801561025457600080fd5b5061026f600480360381019061026a91906119df565b610678565b60405161027c9190611a3a565b60405180910390f35b34801561029157600080fd5b5061029a6106af565b6040516102a79190611a64565b60405180910390f35b3480156102bc57600080fd5b506102c56106bb565b005b3480156102d357600080fd5b506102dc61083e565b6040516102e99190611a64565b60405180910390f35b3480156102fe57600080fd5b5061030761084d565b005b34801561031557600080fd5b50610330600480360381019061032b9190611b09565b610b3c565b60405161033d9190611a3a565b60405180910390f35b34801561035257600080fd5b5061036d60048036038101906103689190611b36565b610b5c565b60405161037a9190611a64565b60405180910390f35b34801561038f57600080fd5b50610398610ba4565b005b3480156103a657600080fd5b506103af610bb8565b6040516103bc9190611a64565b60405180910390f35b3480156103d157600080fd5b506103da610bc3565b6040516103e79190611b72565b60405180910390f35b3480156103fc57600080fd5b50610405610bed565b6040516104129190611924565b60405180910390f35b61043560048036038101906104309190611b09565b610c7f565b6040516104429190611a64565b60405180910390f35b34801561045757600080fd5b50610472600480360381019061046d91906119df565b610d62565b60405161047f9190611a3a565b60405180910390f35b34801561049457600080fd5b506104af60048036038101906104aa91906119df565b610dd9565b6040516104bc9190611a3a565b60405180910390f35b3480156104d157600080fd5b506104da610dfc565b6040516104e79190611a64565b60405180910390f35b3480156104fc57600080fd5b5061051760048036038101906105129190611b8d565b610e02565b6040516105249190611a64565b60405180910390f35b34801561053957600080fd5b50610542610e89565b60405161054f9190611a64565b60405180910390f35b34801561056457600080fd5b5061057f600480360381019061057a9190611b36565b610e97565b005b60606003805461059090611bfc565b80601f01602080910402602001604051908101604052809291908181526020018280546105bc90611bfc565b80156106095780601f106105de57610100808354040283529160200191610609565b820191906000526020600020905b8154815290600101906020018083116105ec57829003601f168201915b5050505050905090565b60008061061e610f1a565b905061062b818585610f22565b600191505092915050565b6000600254905090565b60008061064b610f1a565b90506106588582856110eb565b610663858585611177565b60019150509392505050565b60006012905090565b600080610683610f1a565b90506106a48185856106958589610e02565b61069f9190611c5c565b610f22565b600191505092915050565b678ac7230489e8000081565b6106c36113ed565b60004790506000811161070b576040517f08c379a000000000000000000000000000000000000000000000000000000000815260040161070290611d02565b60405180910390fd5b6000610715610bc3565b905060008173ffffffffffffffffffffffffffffffffffffffff168360405161073d90611d53565b60006040518083038185875af1925050503d806000811461077a576040519150601f19603f3d011682016040523d82523d6000602084013e61077f565b606091505b50509050806107c3576040517f08c379a00000000000000000000000000000000000000000000000000000000081526004016107ba90611db4565b60405180910390fd5b6108396040518060400160405280600981526020017f4163636f756e743a200000000000000000000000000000000000000000000000815250836040518060400160405280600f81526020017f206a7573742072656369657665642000000000000000000000000000000000008152508661146b565b505050565b6000610848610636565b905090565b60003390506108916040518060400160405280600b81526020017f53656e6465722069733a200000000000000000000000000000000000000000008152508261150d565b6000600760009054906101000a900473ffffffffffffffffffffffffffffffffffffffff1673ffffffffffffffffffffffffffffffffffffffff166370a08231836040518263ffffffff1660e01b81526004016108ee9190611b72565b602060405180830381865afa15801561090b573d6000803e3d6000fd5b505050506040513d601f19601f8201168201806040525081019061092f9190611de9565b90506109706040518060400160405280600c81526020017f42616c616e63652069733a200000000000000000000000000000000000000000815250826115a9565b600081116109b3576040517f08c379a00000000000000000000000000000000000000000000000000000000081526004016109aa90611e62565b60405180910390fd5b6000805b82811015610ad6576000600760009054906101000a900473ffffffffffffffffffffffffffffffffffffffff1673ffffffffffffffffffffffffffffffffffffffff16632f745c5986846040518363ffffffff1660e01b8152600401610a1e929190611e82565b602060405180830381865afa158015610a3b573d6000803e3d6000fd5b505050506040513d601f19601f82011682018060405250810190610a5f9190611de9565b90506008600082815260200190815260200160002060009054906101000a900460ff16610ac257600183610a939190611c5c565b925060016008600083815260200190815260200160002060006101000a81548160ff0219169083151502179055505b508080610ace90611eab565b9150506109b7565b5060008111610b1a576040517f08c379a0000000000000000000000000000000000000000000000000000000008152600401610b1190611f3f565b60405180910390fd5b610b3733678ac7230489e8000083610b329190611f5f565b611645565b505050565b60086020528060005260406000206000915054906101000a900460ff1681565b60008060008373ffffffffffffffffffffffffffffffffffffffff1673ffffffffffffffffffffffffffffffffffffffff168152602001908152602001600020549050919050565b610bac6113ed565b610bb6600061179b565b565b66038d7ea4c6800081565b6000600560009054906101000a900473ffffffffffffffffffffffffffffffffffffffff16905090565b606060048054610bfc90611bfc565b80601f0160208091040260200160405190810160405280929190818152602001828054610c2890611bfc565b8015610c755780601f10610c4a57610100808354040283529160200191610c75565b820191906000526020600020905b815481529060010190602001808311610c5857829003601f168201915b5050505050905090565b6000808266038d7ea4c68000610c959190611f5f565b905080341015610cda576040517f08c379a0000000000000000000000000000000000000000000000000000000008152600401610cd190611fed565b60405180910390fd5b6000670de0b6b3a764000084610cf09190611f5f565b905069021e19e0c9bab240000081610d06610636565b610d109190611c5c565b1115610d51576040517f08c379a0000000000000000000000000000000000000000000000000000000008152600401610d489061207f565b60405180910390fd5b610d5b3382611645565b5050919050565b600080610d6d610f1a565b90506000610d7b8286610e02565b905083811015610dc0576040517f08c379a0000000000000000000000000000000000000000000000000000000008152600401610db790612111565b60405180910390fd5b610dcd8286868403610f22565b60019250505092915050565b600080610de4610f1a565b9050610df1818585611177565b600191505092915050565b60065481565b6000600160008473ffffffffffffffffffffffffffffffffffffffff1673ffffffffffffffffffffffffffffffffffffffff16815260200190815260200160002060008373ffffffffffffffffffffffffffffffffffffffff1673ffffffffffffffffffffffffffffffffffffffff16815260200190815260200160002054905092915050565b69021e19e0c9bab240000081565b610e9f6113ed565b600073ffffffffffffffffffffffffffffffffffffffff168173ffffffffffffffffffffffffffffffffffffffff1603610f0e576040517f08c379a0000000000000000000000000000000000000000000000000000000008152600401610f05906121a3565b60405180910390fd5b610f178161179b565b50565b600033905090565b600073ffffffffffffffffffffffffffffffffffffffff168373ffffffffffffffffffffffffffffffffffffffff1603610f91576040517f08c379a0000000000000000000000000000000000000000000000000000000008152600401610f8890612235565b60405180910390fd5b600073ffffffffffffffffffffffffffffffffffffffff168273ffffffffffffffffffffffffffffffffffffffff1603611000576040517f08c379a0000000000000000000000000000000000000000000000000000000008152600401610ff7906122c7565b60405180910390fd5b80600160008573ffffffffffffffffffffffffffffffffffffffff1673ffffffffffffffffffffffffffffffffffffffff16815260200190815260200160002060008473ffffffffffffffffffffffffffffffffffffffff1673ffffffffffffffffffffffffffffffffffffffff168152602001908152602001600020819055508173ffffffffffffffffffffffffffffffffffffffff168373ffffffffffffffffffffffffffffffffffffffff167f8c5be1e5ebec7d5bd14f71427d1e84f3dd0314c0f7b2291e5b200ac8c7c3b925836040516110de9190611a64565b60405180910390a3505050565b60006110f78484610e02565b90507fffffffffffffffffffffffffffffffffffffffffffffffffffffffffffffffff81146111715781811015611163576040517f08c379a000000000000000000000000000000000000000000000000000000000815260040161115a90612333565b60405180910390fd5b6111708484848403610f22565b5b50505050565b600073ffffffffffffffffffffffffffffffffffffffff168373ffffffffffffffffffffffffffffffffffffffff16036111e6576040517f08c379a00000000000000000000000000000000000000000000000000000000081526004016111dd906123c5565b60405180910390fd5b600073ffffffffffffffffffffffffffffffffffffffff168273ffffffffffffffffffffffffffffffffffffffff1603611255576040517f08c379a000000000000000000000000000000000000000000000000000000000815260040161124c90612457565b60405180910390fd5b611260838383611861565b60008060008573ffffffffffffffffffffffffffffffffffffffff1673ffffffffffffffffffffffffffffffffffffffff168152602001908152602001600020549050818110156112e6576040517f08c379a00000000000000000000000000000000000000000000000000000000081526004016112dd906124e9565b60405180910390fd5b8181036000808673ffffffffffffffffffffffffffffffffffffffff1673ffffffffffffffffffffffffffffffffffffffff16815260200190815260200160002081905550816000808573ffffffffffffffffffffffffffffffffffffffff1673ffffffffffffffffffffffffffffffffffffffff168152602001908152602001600020600082825401925050819055508273ffffffffffffffffffffffffffffffffffffffff168473ffffffffffffffffffffffffffffffffffffffff167fddf252ad1be2c89b69c2b068fc378daa952ba7f163c4a11628f55a4df523b3ef846040516113d49190611a64565b60405180910390a36113e7848484611866565b50505050565b6113f5610f1a565b73ffffffffffffffffffffffffffffffffffffffff16611413610bc3565b73ffffffffffffffffffffffffffffffffffffffff1614611469576040517f08c379a000000000000000000000000000000000000000000000000000000000815260040161146090612555565b60405180910390fd5b565b611507848484846040516024016114859493929190612575565b6040516020818303038152906040527f91d1112e000000000000000000000000000000000000000000000000000000007bffffffffffffffffffffffffffffffffffffffffffffffffffffffff19166020820180517bffffffffffffffffffffffffffffffffffffffffffffffffffffffff838183161783525050505061186b565b50505050565b6115a582826040516024016115239291906125c8565b6040516020818303038152906040527f319af333000000000000000000000000000000000000000000000000000000007bffffffffffffffffffffffffffffffffffffffffffffffffffffffff19166020820180517bffffffffffffffffffffffffffffffffffffffffffffffffffffffff838183161783525050505061186b565b5050565b61164182826040516024016115bf9291906125f8565b6040516020818303038152906040527fb60e72cc000000000000000000000000000000000000000000000000000000007bffffffffffffffffffffffffffffffffffffffffffffffffffffffff19166020820180517bffffffffffffffffffffffffffffffffffffffffffffffffffffffff838183161783525050505061186b565b5050565b600073ffffffffffffffffffffffffffffffffffffffff168273ffffffffffffffffffffffffffffffffffffffff16036116b4576040517f08c379a00000000000000000000000000000000000000000000000000000000081526004016116ab90612674565b60405180910390fd5b6116c060008383611861565b80600260008282546116d29190611c5c565b92505081905550806000808473ffffffffffffffffffffffffffffffffffffffff1673ffffffffffffffffffffffffffffffffffffffff168152602001908152602001600020600082825401925050819055508173ffffffffffffffffffffffffffffffffffffffff16600073ffffffffffffffffffffffffffffffffffffffff167fddf252ad1be2c89b69c2b068fc378daa952ba7f163c4a11628f55a4df523b3ef836040516117839190611a64565b60405180910390a361179760008383611866565b5050565b6000600560009054906101000a900473ffffffffffffffffffffffffffffffffffffffff16905081600560006101000a81548173ffffffffffffffffffffffffffffffffffffffff021916908373ffffffffffffffffffffffffffffffffffffffff1602179055508173ffffffffffffffffffffffffffffffffffffffff168173ffffffffffffffffffffffffffffffffffffffff167f8be0079c531659141344cd1fd0a4f28419497f9722a3daafe3b4186f6b6457e060405160405180910390a35050565b505050565b505050565b60008151905060006a636f6e736f6c652e6c6f679050602083016000808483855afa5050505050565b600081519050919050565b600082825260208201905092915050565b60005b838110156118ce5780820151818401526020810190506118b3565b60008484015250505050565b6000601f19601f8301169050919050565b60006118f682611894565b611900818561189f565b93506119108185602086016118b0565b611919816118da565b840191505092915050565b6000602082019050818103600083015261193e81846118eb565b905092915050565b600080fd5b600073ffffffffffffffffffffffffffffffffffffffff82169050919050565b60006119768261194b565b9050919050565b6119868161196b565b811461199157600080fd5b50565b6000813590506119a38161197d565b92915050565b6000819050919050565b6119bc816119a9565b81146119c757600080fd5b50565b6000813590506119d9816119b3565b92915050565b600080604083850312156119f6576119f5611946565b5b6000611a0485828601611994565b9250506020611a15858286016119ca565b9150509250929050565b60008115159050919050565b611a3481611a1f565b82525050565b6000602082019050611a4f6000830184611a2b565b92915050565b611a5e816119a9565b82525050565b6000602082019050611a796000830184611a55565b92915050565b600080600060608486031215611a9857611a97611946565b5b6000611aa686828701611994565b9350506020611ab786828701611994565b9250506040611ac8868287016119ca565b9150509250925092565b600060ff82169050919050565b611ae881611ad2565b82525050565b6000602082019050611b036000830184611adf565b92915050565b600060208284031215611b1f57611b1e611946565b5b6000611b2d848285016119ca565b91505092915050565b600060208284031215611b4c57611b4b611946565b5b6000611b5a84828501611994565b91505092915050565b611b6c8161196b565b82525050565b6000602082019050611b876000830184611b63565b92915050565b60008060408385031215611ba457611ba3611946565b5b6000611bb285828601611994565b9250506020611bc385828601611994565b9150509250929050565b7f4e487b7100000000000000000000000000000000000000000000000000000000600052602260045260246000fd5b60006002820490506001821680611c1457607f821691505b602082108103611c2757611c26611bcd565b5b50919050565b7f4e487b7100000000000000000000000000000000000000000000000000000000600052601160045260246000fd5b6000611c67826119a9565b9150611c72836119a9565b9250828201905080821115611c8a57611c89611c2d565b5b92915050565b7f4e6f7468696e6720696e20746865206163636f756e7420746f2077697468647260008201527f6177000000000000000000000000000000000000000000000000000000000000602082015250565b6000611cec60228361189f565b9150611cf782611c90565b604082019050919050565b60006020820190508181036000830152611d1b81611cdf565b9050919050565b600081905092915050565b50565b6000611d3d600083611d22565b9150611d4882611d2d565b600082019050919050565b6000611d5e82611d30565b9150819050919050565b7f46616c69656420746f207472616e7366657220616d6f756e7400000000000000600082015250565b6000611d9e60198361189f565b9150611da982611d68565b602082019050919050565b60006020820190508181036000830152611dcd81611d91565b9050919050565b600081519050611de3816119b3565b92915050565b600060208284031215611dff57611dfe611946565b5b6000611e0d84828501611dd4565b91505092915050565b7f596f7520646f206e6f74206f776e20616e79204d6f656e73204e465473000000600082015250565b6000611e4c601d8361189f565b9150611e5782611e16565b602082019050919050565b60006020820190508181036000830152611e7b81611e3f565b9050919050565b6000604082019050611e976000830185611b63565b611ea46020830184611a55565b9392505050565b6000611eb6826119a9565b91507fffffffffffffffffffffffffffffffffffffffffffffffffffffffffffffffff8203611ee857611ee7611c2d565b5b600182019050919050565b7f596f75206861766520636c61696d656420616c6c2074686520746f6b656e7300600082015250565b6000611f29601f8361189f565b9150611f3482611ef3565b602082019050919050565b60006020820190508181036000830152611f5881611f1c565b9050919050565b6000611f6a826119a9565b9150611f75836119a9565b9250828202611f83816119a9565b91508282048414831517611f9a57611f99611c2d565b5b5092915050565b7f45746865722073656e74206973206e6f7420656e6f7567682100000000000000600082015250565b6000611fd760198361189f565b9150611fe282611fa1565b602082019050919050565b6000602082019050818103600083015261200681611fca565b9050919050565b7f416d6f756e742065786365656473206d6178696d756d20746f74616c2073757060008201527f706c790000000000000000000000000000000000000000000000000000000000602082015250565b600061206960238361189f565b91506120748261200d565b604082019050919050565b600060208201905081810360008301526120988161205c565b9050919050565b7f45524332303a2064656372656173656420616c6c6f77616e63652062656c6f7760008201527f207a65726f000000000000000000000000000000000000000000000000000000602082015250565b60006120fb60258361189f565b91506121068261209f565b604082019050919050565b6000602082019050818103600083015261212a816120ee565b9050919050565b7f4f776e61626c653a206e6577206f776e657220697320746865207a65726f206160008201527f6464726573730000000000000000000000000000000000000000000000000000602082015250565b600061218d60268361189f565b915061219882612131565b604082019050919050565b600060208201905081810360008301526121bc81612180565b9050919050565b7f45524332303a20617070726f76652066726f6d20746865207a65726f2061646460008201527f7265737300000000000000000000000000000000000000000000000000000000602082015250565b600061221f60248361189f565b915061222a826121c3565b604082019050919050565b6000602082019050818103600083015261224e81612212565b9050919050565b7f45524332303a20617070726f766520746f20746865207a65726f20616464726560008201527f7373000000000000000000000000000000000000000000000000000000000000602082015250565b60006122b160228361189f565b91506122bc82612255565b604082019050919050565b600060208201905081810360008301526122e0816122a4565b9050919050565b7f45524332303a20696e73756666696369656e7420616c6c6f77616e6365000000600082015250565b600061231d601d8361189f565b9150612328826122e7565b602082019050919050565b6000602082019050818103600083015261234c81612310565b9050919050565b7f45524332303a207472616e736665722066726f6d20746865207a65726f20616460008201527f6472657373000000000000000000000000000000000000000000000000000000602082015250565b60006123af60258361189f565b91506123ba82612353565b604082019050919050565b600060208201905081810360008301526123de816123a2565b9050919050565b7f45524332303a207472616e7366657220746f20746865207a65726f206164647260008201527f6573730000000000000000000000000000000000000000000000000000000000602082015250565b600061244160238361189f565b915061244c826123e5565b604082019050919050565b6000602082019050818103600083015261247081612434565b9050919050565b7f45524332303a207472616e7366657220616d6f756e742065786365656473206260008201527f616c616e63650000000000000000000000000000000000000000000000000000602082015250565b60006124d360268361189f565b91506124de82612477565b604082019050919050565b60006020820190508181036000830152612502816124c6565b9050919050565b7f4f776e61626c653a2063616c6c6572206973206e6f7420746865206f776e6572600082015250565b600061253f60208361189f565b915061254a82612509565b602082019050919050565b6000602082019050818103600083015261256e81612532565b9050919050565b6000608082019050818103600083015261258f81876118eb565b905061259e6020830186611b63565b81810360408301526125b081856118eb565b90506125bf6060830184611a55565b95945050505050565b600060408201905081810360008301526125e281856118eb565b90506125f16020830184611b63565b9392505050565b6000604082019050818103600083015261261281856118eb565b90506126216020830184611a55565b9392505050565b7f45524332303a206d696e7420746f20746865207a65726f206164647265737300600082015250565b600061265e601f8361189f565b915061266982612628565b602082019050919050565b6000602082019050818103600083015261268d81612651565b905091905056fea26469706673582212206379272bc667d024cad6b64b53482ab360cc0e40bc681ea6a433a4da028e1a0164736f6c63430008110033",
  "linkReferences": {},
  "deployedLinkReferences": {}
}