{
  "_format": "hh-sol-artifact-1",
  "contractName": "MoensToken",
  "sourceName": "contracts/MoensToken.sol",
  "abi": [
    {
      "inputs": [
        {
          "internalType": "address",
          "name": "_MoensNftContract",
          "type": "address"
        }
      ],
      "stateMutability": "nonpayable",
      "type": "constructor"
    },
    {
      "anonymous": false,
      "inputs": [
        {
          "indexed": true,
          "internalType": "address",
          "name": "owner",
          "type": "address"
        },
        {
          "indexed": true,
          "internalType": "address",
          "name": "spender",
          "type": "address"
        },
        {
          "indexed": false,
          "internalType": "uint256",
          "name": "value",
          "type": "uint256"
        }
      ],
      "name": "Approval",
      "type": "event"
    },
    {
      "anonymous": false,
      "inputs": [
        {
          "indexed": true,
          "internalType": "address",
          "name": "previousOwner",
          "type": "address"
        },
        {
          "indexed": true,
          "internalType": "address",
          "name": "newOwner",
          "type": "address"
        }
      ],
      "name": "OwnershipTransferred",
      "type": "event"
    },
    {
      "anonymous": false,
      "inputs": [
        {
          "indexed": true,
          "internalType": "address",
          "name": "from",
          "type": "address"
        },
        {
          "indexed": true,
          "internalType": "address",
          "name": "to",
          "type": "address"
        },
        {
          "indexed": false,
          "internalType": "uint256",
          "name": "value",
          "type": "uint256"
        }
      ],
      "name": "Transfer",
      "type": "event"
    },
    {
      "stateMutability": "payable",
      "type": "fallback"
    },
    {
      "inputs": [
        {
          "internalType": "address",
          "name": "owner",
          "type": "address"
        },
        {
          "internalType": "address",
          "name": "spender",
          "type": "address"
        }
      ],
      "name": "allowance",
      "outputs": [
        {
          "internalType": "uint256",
          "name": "",
          "type": "uint256"
        }
      ],
      "stateMutability": "view",
      "type": "function"
    },
    {
      "inputs": [
        {
          "internalType": "address",
          "name": "spender",
          "type": "address"
        },
        {
          "internalType": "uint256",
          "name": "amount",
          "type": "uint256"
        }
      ],
      "name": "approve",
      "outputs": [
        {
          "internalType": "bool",
          "name": "",
          "type": "bool"
        }
      ],
      "stateMutability": "nonpayable",
      "type": "function"
    },
    {
      "inputs": [
        {
          "internalType": "address",
          "name": "account",
          "type": "address"
        }
      ],
      "name": "balanceOf",
      "outputs": [
        {
          "internalType": "uint256",
          "name": "",
          "type": "uint256"
        }
      ],
      "stateMutability": "view",
      "type": "function"
    },
    {
      "inputs": [],
      "name": "calculateRemainingSupply",
      "outputs": [
        {
          "internalType": "uint256",
          "name": "",
          "type": "uint256"
        }
      ],
      "stateMutability": "nonpayable",
      "type": "function"
    },
    {
      "inputs": [],
      "name": "claim",
      "outputs": [
        {
          "internalType": "uint256",
          "name": "",
          "type": "uint256"
        }
      ],
      "stateMutability": "nonpayable",
      "type": "function"
    },
    {
      "inputs": [],
      "name": "decimals",
      "outputs": [
        {
          "internalType": "uint8",
          "name": "",
          "type": "uint8"
        }
      ],
      "stateMutability": "view",
      "type": "function"
    },
    {
      "inputs": [
        {
          "internalType": "address",
          "name": "spender",
          "type": "address"
        },
        {
          "internalType": "uint256",
          "name": "subtractedValue",
          "type": "uint256"
        }
      ],
      "name": "decreaseAllowance",
      "outputs": [
        {
          "internalType": "bool",
          "name": "",
          "type": "bool"
        }
      ],
      "stateMutability": "nonpayable",
      "type": "function"
    },
    {
      "inputs": [
        {
          "internalType": "address",
          "name": "spender",
          "type": "address"
        },
        {
          "internalType": "uint256",
          "name": "addedValue",
          "type": "uint256"
        }
      ],
      "name": "increaseAllowance",
      "outputs": [
        {
          "internalType": "bool",
          "name": "",
          "type": "bool"
        }
      ],
      "stateMutability": "nonpayable",
      "type": "function"
    },
    {
      "inputs": [],
      "name": "maxTotalSuppy",
      "outputs": [
        {
          "internalType": "uint256",
          "name": "",
          "type": "uint256"
        }
      ],
      "stateMutability": "view",
      "type": "function"
    },
    {
      "inputs": [
        {
          "internalType": "uint256",
          "name": "amount",
          "type": "uint256"
        }
      ],
      "name": "mint",
      "outputs": [
        {
          "internalType": "uint256",
          "name": "",
          "type": "uint256"
        }
      ],
      "stateMutability": "payable",
      "type": "function"
    },
    {
      "inputs": [],
      "name": "name",
      "outputs": [
        {
          "internalType": "string",
          "name": "",
          "type": "string"
        }
      ],
      "stateMutability": "view",
      "type": "function"
    },
    {
      "inputs": [],
      "name": "owner",
      "outputs": [
        {
          "internalType": "address",
          "name": "",
          "type": "address"
        }
      ],
      "stateMutability": "view",
      "type": "function"
    },
    {
      "inputs": [],
      "name": "remainingSupply",
      "outputs": [
        {
          "internalType": "uint256",
          "name": "",
          "type": "uint256"
        }
      ],
      "stateMutability": "view",
      "type": "function"
    },
    {
      "inputs": [],
      "name": "renounceOwnership",
      "outputs": [],
      "stateMutability": "nonpayable",
      "type": "function"
    },
    {
      "inputs": [],
      "name": "symbol",
      "outputs": [
        {
          "internalType": "string",
          "name": "",
          "type": "string"
        }
      ],
      "stateMutability": "view",
      "type": "function"
    },
    {
      "inputs": [
        {
          "internalType": "uint256",
          "name": "",
          "type": "uint256"
        }
      ],
      "name": "tokenIdsClaimed",
      "outputs": [
        {
          "internalType": "bool",
          "name": "",
          "type": "bool"
        }
      ],
      "stateMutability": "view",
      "type": "function"
    },
    {
      "inputs": [],
      "name": "tokenPerNft",
      "outputs": [
        {
          "internalType": "uint256",
          "name": "",
          "type": "uint256"
        }
      ],
      "stateMutability": "view",
      "type": "function"
    },
    {
      "inputs": [],
      "name": "tokenPrice",
      "outputs": [
        {
          "internalType": "uint256",
          "name": "",
          "type": "uint256"
        }
      ],
      "stateMutability": "view",
      "type": "function"
    },
    {
      "inputs": [],
      "name": "totalSupply",
      "outputs": [
        {
          "internalType": "uint256",
          "name": "",
          "type": "uint256"
        }
      ],
      "stateMutability": "view",
      "type": "function"
    },
    {
      "inputs": [
        {
          "internalType": "address",
          "name": "to",
          "type": "address"
        },
        {
          "internalType": "uint256",
          "name": "amount",
          "type": "uint256"
        }
      ],
      "name": "transfer",
      "outputs": [
        {
          "internalType": "bool",
          "name": "",
          "type": "bool"
        }
      ],
      "stateMutability": "nonpayable",
      "type": "function"
    },
    {
      "inputs": [
        {
          "internalType": "address",
          "name": "from",
          "type": "address"
        },
        {
          "internalType": "address",
          "name": "to",
          "type": "address"
        },
        {
          "internalType": "uint256",
          "name": "amount",
          "type": "uint256"
        }
      ],
      "name": "transferFrom",
      "outputs": [
        {
          "internalType": "bool",
          "name": "",
          "type": "bool"
        }
      ],
      "stateMutability": "nonpayable",
      "type": "function"
    },
    {
      "inputs": [
        {
          "internalType": "address",
          "name": "newOwner",
          "type": "address"
        }
      ],
      "name": "transferOwnership",
      "outputs": [],
      "stateMutability": "nonpayable",
      "type": "function"
    },
    {
      "inputs": [],
      "name": "withdraw",
      "outputs": [],
      "stateMutability": "nonpayable",
      "type": "function"
    },
    {
      "stateMutability": "payable",
      "type": "receive"
    }
  ],
  "bytecode": "0x60806040523480156200001157600080fd5b5060405162002b9b38038062002b9b833981810160405281019062000037919062000269565b6040518060400160405280600b81526020017f4d6f656e7320546f6b656e0000000000000000000000000000000000000000008152506040518060400160405280600381526020017f4d544b00000000000000000000000000000000000000000000000000000000008152508160039081620000b4919062000515565b508060049081620000c6919062000515565b505050620000e9620000dd6200013160201b60201c565b6200013960201b60201c565b80600760006101000a81548173ffffffffffffffffffffffffffffffffffffffff021916908373ffffffffffffffffffffffffffffffffffffffff16021790555050620005fc565b600033905090565b6000600560009054906101000a900473ffffffffffffffffffffffffffffffffffffffff16905081600560006101000a81548173ffffffffffffffffffffffffffffffffffffffff021916908373ffffffffffffffffffffffffffffffffffffffff1602179055508173ffffffffffffffffffffffffffffffffffffffff168173ffffffffffffffffffffffffffffffffffffffff167f8be0079c531659141344cd1fd0a4f28419497f9722a3daafe3b4186f6b6457e060405160405180910390a35050565b600080fd5b600073ffffffffffffffffffffffffffffffffffffffff82169050919050565b6000620002318262000204565b9050919050565b620002438162000224565b81146200024f57600080fd5b50565b600081519050620002638162000238565b92915050565b600060208284031215620002825762000281620001ff565b5b6000620002928482850162000252565b91505092915050565b600081519050919050565b7f4e487b7100000000000000000000000000000000000000000000000000000000600052604160045260246000fd5b7f4e487b7100000000000000000000000000000000000000000000000000000000600052602260045260246000fd5b600060028204905060018216806200031d57607f821691505b602082108103620003335762000332620002d5565b5b50919050565b60008190508160005260206000209050919050565b60006020601f8301049050919050565b600082821b905092915050565b6000600883026200039d7fffffffffffffffffffffffffffffffffffffffffffffffffffffffffffffffff826200035e565b620003a986836200035e565b95508019841693508086168417925050509392505050565b6000819050919050565b6000819050919050565b6000620003f6620003f0620003ea84620003c1565b620003cb565b620003c1565b9050919050565b6000819050919050565b6200041283620003d5565b6200042a6200042182620003fd565b8484546200036b565b825550505050565b600090565b6200044162000432565b6200044e81848462000407565b505050565b5b8181101562000476576200046a60008262000437565b60018101905062000454565b5050565b601f821115620004c5576200048f8162000339565b6200049a846200034e565b81016020851015620004aa578190505b620004c2620004b9856200034e565b83018262000453565b50505b505050565b600082821c905092915050565b6000620004ea60001984600802620004ca565b1980831691505092915050565b6000620005058383620004d7565b9150826002028217905092915050565b62000520826200029b565b67ffffffffffffffff8111156200053c576200053b620002a6565b5b62000548825462000304565b620005558282856200047a565b600060209050601f8311600181146200058d576000841562000578578287015190505b620005848582620004f7565b865550620005f4565b601f1984166200059d8662000339565b60005b82811015620005c757848901518255600182019150602085019450602081019050620005a0565b86831015620005e75784890151620005e3601f891682620004d7565b8355505b6001600288020188555050505b505050505050565b61258f806200060c6000396000f3fe6080604052600436106101445760003560e01c806370a08231116100b6578063a457c2d71161006f578063a457c2d71461045f578063a9059cbb1461049c578063da0239a6146104d9578063dd62ed3e14610504578063e27f091614610541578063f2fde38b1461056c5761014b565b806370a082311461035a578063715018a6146103975780637ff9b596146103ae5780638da5cb5b146103d957806395d89b4114610404578063a0712d681461042f5761014b565b806339509351116101085780633950935114610248578063398513c8146102855780633ccfd60b146102b057806344b95867146102c75780634e71d92d146102f25780635f3690af1461031d5761014b565b806306fdde031461014d578063095ea7b31461017857806318160ddd146101b557806323b872dd146101e0578063313ce5671461021d5761014b565b3661014b57005b005b34801561015957600080fd5b50610162610595565b60405161016f919061187e565b60405180910390f35b34801561018457600080fd5b5061019f600480360381019061019a9190611939565b610627565b6040516101ac9190611994565b60405180910390f35b3480156101c157600080fd5b506101ca61064a565b6040516101d791906119be565b60405180910390f35b3480156101ec57600080fd5b50610207600480360381019061020291906119d9565b610654565b6040516102149190611994565b60405180910390f35b34801561022957600080fd5b50610232610683565b60405161023f9190611a48565b60405180910390f35b34801561025457600080fd5b5061026f600480360381019061026a9190611939565b61068c565b60405161027c9190611994565b60405180910390f35b34801561029157600080fd5b5061029a6106c3565b6040516102a791906119be565b60405180910390f35b3480156102bc57600080fd5b506102c56106cf565b005b3480156102d357600080fd5b506102dc610852565b6040516102e991906119be565b60405180910390f35b3480156102fe57600080fd5b50610307610861565b60405161031491906119be565b60405180910390f35b34801561032957600080fd5b50610344600480360381019061033f9190611a63565b610a96565b6040516103519190611994565b60405180910390f35b34801561036657600080fd5b50610381600480360381019061037c9190611a90565b610ab6565b60405161038e91906119be565b60405180910390f35b3480156103a357600080fd5b506103ac610afe565b005b3480156103ba57600080fd5b506103c3610b12565b6040516103d091906119be565b60405180910390f35b3480156103e557600080fd5b506103ee610b1d565b6040516103fb9190611acc565b60405180910390f35b34801561041057600080fd5b50610419610b47565b604051610426919061187e565b60405180910390f35b61044960048036038101906104449190611a63565b610bd9565b60405161045691906119be565b60405180910390f35b34801561046b57600080fd5b5061048660048036038101906104819190611939565b610cbc565b6040516104939190611994565b60405180910390f35b3480156104a857600080fd5b506104c360048036038101906104be9190611939565b610d33565b6040516104d09190611994565b60405180910390f35b3480156104e557600080fd5b506104ee610d56565b6040516104fb91906119be565b60405180910390f35b34801561051057600080fd5b5061052b60048036038101906105269190611ae7565b610d5c565b60405161053891906119be565b60405180910390f35b34801561054d57600080fd5b50610556610de3565b60405161056391906119be565b60405180910390f35b34801561057857600080fd5b50610593600480360381019061058e9190611a90565b610df1565b005b6060600380546105a490611b56565b80601f01602080910402602001604051908101604052809291908181526020018280546105d090611b56565b801561061d5780601f106105f25761010080835404028352916020019161061d565b820191906000526020600020905b81548152906001019060200180831161060057829003601f168201915b5050505050905090565b600080610632610e74565b905061063f818585610e7c565b600191505092915050565b6000600254905090565b60008061065f610e74565b905061066c858285611045565b6106778585856110d1565b60019150509392505050565b60006012905090565b600080610697610e74565b90506106b88185856106a98589610d5c565b6106b39190611bb6565b610e7c565b600191505092915050565b678ac7230489e8000081565b6106d7611347565b60004790506000811161071f576040517f08c379a000000000000000000000000000000000000000000000000000000000815260040161071690611c5c565b60405180910390fd5b6000610729610b1d565b905060008173ffffffffffffffffffffffffffffffffffffffff168360405161075190611cad565b60006040518083038185875af1925050503d806000811461078e576040519150601f19603f3d011682016040523d82523d6000602084013e610793565b606091505b50509050806107d7576040517f08c379a00000000000000000000000000000000000000000000000000000000081526004016107ce90611d0e565b60405180910390fd5b61084d6040518060400160405280600981526020017f4163636f756e743a200000000000000000000000000000000000000000000000815250836040518060400160405280600f81526020017f206a757374207265636965766564200000000000000000000000000000000000815250866113c5565b505050565b600061085c61064a565b905090565b6000803390506108a66040518060400160405280600b81526020017f53656e6465722069733a2000000000000000000000000000000000000000000081525082611467565b6000600760009054906101000a900473ffffffffffffffffffffffffffffffffffffffff1673ffffffffffffffffffffffffffffffffffffffff166370a08231836040518263ffffffff1660e01b81526004016109039190611acc565b602060405180830381865afa158015610920573d6000803e3d6000fd5b505050506040513d601f19601f820116820180604052508101906109449190611d43565b90506109856040518060400160405280600c81526020017f42616c616e63652069733a20000000000000000000000000000000000000000081525082611503565b600081116109c8576040517f08c379a00000000000000000000000000000000000000000000000000000000081526004016109bf90611dbc565b60405180910390fd5b6000806000905060005b83811015610a8b57600760009054906101000a900473ffffffffffffffffffffffffffffffffffffffff1673ffffffffffffffffffffffffffffffffffffffff166370a08231866040518263ffffffff1660e01b8152600401610a359190611acc565b602060405180830381865afa158015610a52573d6000803e3d6000fd5b505050506040513d601f19601f82011682018060405250810190610a769190611d43565b92508080610a8390611ddc565b9150506109d2565b508194505050505090565b60086020528060005260406000206000915054906101000a900460ff1681565b60008060008373ffffffffffffffffffffffffffffffffffffffff1673ffffffffffffffffffffffffffffffffffffffff168152602001908152602001600020549050919050565b610b06611347565b610b10600061159f565b565b66038d7ea4c6800081565b6000600560009054906101000a900473ffffffffffffffffffffffffffffffffffffffff16905090565b606060048054610b5690611b56565b80601f0160208091040260200160405190810160405280929190818152602001828054610b8290611b56565b8015610bcf5780601f10610ba457610100808354040283529160200191610bcf565b820191906000526020600020905b815481529060010190602001808311610bb257829003601f168201915b5050505050905090565b6000808266038d7ea4c68000610bef9190611e24565b905080341015610c34576040517f08c379a0000000000000000000000000000000000000000000000000000000008152600401610c2b90611eb2565b60405180910390fd5b6000670de0b6b3a764000084610c4a9190611e24565b905069021e19e0c9bab240000081610c6061064a565b610c6a9190611bb6565b1115610cab576040517f08c379a0000000000000000000000000000000000000000000000000000000008152600401610ca290611f44565b60405180910390fd5b610cb53382611665565b5050919050565b600080610cc7610e74565b90506000610cd58286610d5c565b905083811015610d1a576040517f08c379a0000000000000000000000000000000000000000000000000000000008152600401610d1190611fd6565b60405180910390fd5b610d278286868403610e7c565b60019250505092915050565b600080610d3e610e74565b9050610d4b8185856110d1565b600191505092915050565b60065481565b6000600160008473ffffffffffffffffffffffffffffffffffffffff1673ffffffffffffffffffffffffffffffffffffffff16815260200190815260200160002060008373ffffffffffffffffffffffffffffffffffffffff1673ffffffffffffffffffffffffffffffffffffffff16815260200190815260200160002054905092915050565b69021e19e0c9bab240000081565b610df9611347565b600073ffffffffffffffffffffffffffffffffffffffff168173ffffffffffffffffffffffffffffffffffffffff1603610e68576040517f08c379a0000000000000000000000000000000000000000000000000000000008152600401610e5f90612068565b60405180910390fd5b610e718161159f565b50565b600033905090565b600073ffffffffffffffffffffffffffffffffffffffff168373ffffffffffffffffffffffffffffffffffffffff1603610eeb576040517f08c379a0000000000000000000000000000000000000000000000000000000008152600401610ee2906120fa565b60405180910390fd5b600073ffffffffffffffffffffffffffffffffffffffff168273ffffffffffffffffffffffffffffffffffffffff1603610f5a576040517f08c379a0000000000000000000000000000000000000000000000000000000008152600401610f519061218c565b60405180910390fd5b80600160008573ffffffffffffffffffffffffffffffffffffffff1673ffffffffffffffffffffffffffffffffffffffff16815260200190815260200160002060008473ffffffffffffffffffffffffffffffffffffffff1673ffffffffffffffffffffffffffffffffffffffff168152602001908152602001600020819055508173ffffffffffffffffffffffffffffffffffffffff168373ffffffffffffffffffffffffffffffffffffffff167f8c5be1e5ebec7d5bd14f71427d1e84f3dd0314c0f7b2291e5b200ac8c7c3b9258360405161103891906119be565b60405180910390a3505050565b60006110518484610d5c565b90507fffffffffffffffffffffffffffffffffffffffffffffffffffffffffffffffff81146110cb57818110156110bd576040517f08c379a00000000000000000000000000000000000000000000000000000000081526004016110b4906121f8565b60405180910390fd5b6110ca8484848403610e7c565b5b50505050565b600073ffffffffffffffffffffffffffffffffffffffff168373ffffffffffffffffffffffffffffffffffffffff1603611140576040517f08c379a00000000000000000000000000000000000000000000000000000000081526004016111379061228a565b60405180910390fd5b600073ffffffffffffffffffffffffffffffffffffffff168273ffffffffffffffffffffffffffffffffffffffff16036111af576040517f08c379a00000000000000000000000000000000000000000000000000000000081526004016111a69061231c565b60405180910390fd5b6111ba8383836117bb565b60008060008573ffffffffffffffffffffffffffffffffffffffff1673ffffffffffffffffffffffffffffffffffffffff16815260200190815260200160002054905081811015611240576040517f08c379a0000000000000000000000000000000000000000000000000000000008152600401611237906123ae565b60405180910390fd5b8181036000808673ffffffffffffffffffffffffffffffffffffffff1673ffffffffffffffffffffffffffffffffffffffff16815260200190815260200160002081905550816000808573ffffffffffffffffffffffffffffffffffffffff1673ffffffffffffffffffffffffffffffffffffffff168152602001908152602001600020600082825401925050819055508273ffffffffffffffffffffffffffffffffffffffff168473ffffffffffffffffffffffffffffffffffffffff167fddf252ad1be2c89b69c2b068fc378daa952ba7f163c4a11628f55a4df523b3ef8460405161132e91906119be565b60405180910390a36113418484846117c0565b50505050565b61134f610e74565b73ffffffffffffffffffffffffffffffffffffffff1661136d610b1d565b73ffffffffffffffffffffffffffffffffffffffff16146113c3576040517f08c379a00000000000000000000000000000000000000000000000000000000081526004016113ba9061241a565b60405180910390fd5b565b611461848484846040516024016113df949392919061243a565b6040516020818303038152906040527f91d1112e000000000000000000000000000000000000000000000000000000007bffffffffffffffffffffffffffffffffffffffffffffffffffffffff19166020820180517bffffffffffffffffffffffffffffffffffffffffffffffffffffffff83818316178352505050506117c5565b50505050565b6114ff828260405160240161147d92919061248d565b6040516020818303038152906040527f319af333000000000000000000000000000000000000000000000000000000007bffffffffffffffffffffffffffffffffffffffffffffffffffffffff19166020820180517bffffffffffffffffffffffffffffffffffffffffffffffffffffffff83818316178352505050506117c5565b5050565b61159b82826040516024016115199291906124bd565b6040516020818303038152906040527fb60e72cc000000000000000000000000000000000000000000000000000000007bffffffffffffffffffffffffffffffffffffffffffffffffffffffff19166020820180517bffffffffffffffffffffffffffffffffffffffffffffffffffffffff83818316178352505050506117c5565b5050565b6000600560009054906101000a900473ffffffffffffffffffffffffffffffffffffffff16905081600560006101000a81548173ffffffffffffffffffffffffffffffffffffffff021916908373ffffffffffffffffffffffffffffffffffffffff1602179055508173ffffffffffffffffffffffffffffffffffffffff168173ffffffffffffffffffffffffffffffffffffffff167f8be0079c531659141344cd1fd0a4f28419497f9722a3daafe3b4186f6b6457e060405160405180910390a35050565b600073ffffffffffffffffffffffffffffffffffffffff168273ffffffffffffffffffffffffffffffffffffffff16036116d4576040517f08c379a00000000000000000000000000000000000000000000000000000000081526004016116cb90612539565b60405180910390fd5b6116e0600083836117bb565b80600260008282546116f29190611bb6565b92505081905550806000808473ffffffffffffffffffffffffffffffffffffffff1673ffffffffffffffffffffffffffffffffffffffff168152602001908152602001600020600082825401925050819055508173ffffffffffffffffffffffffffffffffffffffff16600073ffffffffffffffffffffffffffffffffffffffff167fddf252ad1be2c89b69c2b068fc378daa952ba7f163c4a11628f55a4df523b3ef836040516117a391906119be565b60405180910390a36117b7600083836117c0565b5050565b505050565b505050565b60008151905060006a636f6e736f6c652e6c6f679050602083016000808483855afa5050505050565b600081519050919050565b600082825260208201905092915050565b60005b8381101561182857808201518184015260208101905061180d565b60008484015250505050565b6000601f19601f8301169050919050565b6000611850826117ee565b61185a81856117f9565b935061186a81856020860161180a565b61187381611834565b840191505092915050565b600060208201905081810360008301526118988184611845565b905092915050565b600080fd5b600073ffffffffffffffffffffffffffffffffffffffff82169050919050565b60006118d0826118a5565b9050919050565b6118e0816118c5565b81146118eb57600080fd5b50565b6000813590506118fd816118d7565b92915050565b6000819050919050565b61191681611903565b811461192157600080fd5b50565b6000813590506119338161190d565b92915050565b600080604083850312156119505761194f6118a0565b5b600061195e858286016118ee565b925050602061196f85828601611924565b9150509250929050565b60008115159050919050565b61198e81611979565b82525050565b60006020820190506119a96000830184611985565b92915050565b6119b881611903565b82525050565b60006020820190506119d360008301846119af565b92915050565b6000806000606084860312156119f2576119f16118a0565b5b6000611a00868287016118ee565b9350506020611a11868287016118ee565b9250506040611a2286828701611924565b9150509250925092565b600060ff82169050919050565b611a4281611a2c565b82525050565b6000602082019050611a5d6000830184611a39565b92915050565b600060208284031215611a7957611a786118a0565b5b6000611a8784828501611924565b91505092915050565b600060208284031215611aa657611aa56118a0565b5b6000611ab4848285016118ee565b91505092915050565b611ac6816118c5565b82525050565b6000602082019050611ae16000830184611abd565b92915050565b60008060408385031215611afe57611afd6118a0565b5b6000611b0c858286016118ee565b9250506020611b1d858286016118ee565b9150509250929050565b7f4e487b7100000000000000000000000000000000000000000000000000000000600052602260045260246000fd5b60006002820490506001821680611b6e57607f821691505b602082108103611b8157611b80611b27565b5b50919050565b7f4e487b7100000000000000000000000000000000000000000000000000000000600052601160045260246000fd5b6000611bc182611903565b9150611bcc83611903565b9250828201905080821115611be457611be3611b87565b5b92915050565b7f4e6f7468696e6720696e20746865206163636f756e7420746f2077697468647260008201527f6177000000000000000000000000000000000000000000000000000000000000602082015250565b6000611c466022836117f9565b9150611c5182611bea565b604082019050919050565b60006020820190508181036000830152611c7581611c39565b9050919050565b600081905092915050565b50565b6000611c97600083611c7c565b9150611ca282611c87565b600082019050919050565b6000611cb882611c8a565b9150819050919050565b7f46616c69656420746f207472616e7366657220616d6f756e7400000000000000600082015250565b6000611cf86019836117f9565b9150611d0382611cc2565b602082019050919050565b60006020820190508181036000830152611d2781611ceb565b9050919050565b600081519050611d3d8161190d565b92915050565b600060208284031215611d5957611d586118a0565b5b6000611d6784828501611d2e565b91505092915050565b7f596f7520646f206e6f74206f776e20616e79204d6f656e73204e465473000000600082015250565b6000611da6601d836117f9565b9150611db182611d70565b602082019050919050565b60006020820190508181036000830152611dd581611d99565b9050919050565b6000611de782611903565b91507fffffffffffffffffffffffffffffffffffffffffffffffffffffffffffffffff8203611e1957611e18611b87565b5b600182019050919050565b6000611e2f82611903565b9150611e3a83611903565b9250828202611e4881611903565b91508282048414831517611e5f57611e5e611b87565b5b5092915050565b7f45746865722073656e74206973206e6f7420656e6f7567682100000000000000600082015250565b6000611e9c6019836117f9565b9150611ea782611e66565b602082019050919050565b60006020820190508181036000830152611ecb81611e8f565b9050919050565b7f416d6f756e742065786365656473206d6178696d756d20746f74616c2073757060008201527f706c790000000000000000000000000000000000000000000000000000000000602082015250565b6000611f2e6023836117f9565b9150611f3982611ed2565b604082019050919050565b60006020820190508181036000830152611f5d81611f21565b9050919050565b7f45524332303a2064656372656173656420616c6c6f77616e63652062656c6f7760008201527f207a65726f000000000000000000000000000000000000000000000000000000602082015250565b6000611fc06025836117f9565b9150611fcb82611f64565b604082019050919050565b60006020820190508181036000830152611fef81611fb3565b9050919050565b7f4f776e61626c653a206e6577206f776e657220697320746865207a65726f206160008201527f6464726573730000000000000000000000000000000000000000000000000000602082015250565b60006120526026836117f9565b915061205d82611ff6565b604082019050919050565b6000602082019050818103600083015261208181612045565b9050919050565b7f45524332303a20617070726f76652066726f6d20746865207a65726f2061646460008201527f7265737300000000000000000000000000000000000000000000000000000000602082015250565b60006120e46024836117f9565b91506120ef82612088565b604082019050919050565b60006020820190508181036000830152612113816120d7565b9050919050565b7f45524332303a20617070726f766520746f20746865207a65726f20616464726560008201527f7373000000000000000000000000000000000000000000000000000000000000602082015250565b60006121766022836117f9565b91506121818261211a565b604082019050919050565b600060208201905081810360008301526121a581612169565b9050919050565b7f45524332303a20696e73756666696369656e7420616c6c6f77616e6365000000600082015250565b60006121e2601d836117f9565b91506121ed826121ac565b602082019050919050565b60006020820190508181036000830152612211816121d5565b9050919050565b7f45524332303a207472616e736665722066726f6d20746865207a65726f20616460008201527f6472657373000000000000000000000000000000000000000000000000000000602082015250565b60006122746025836117f9565b915061227f82612218565b604082019050919050565b600060208201905081810360008301526122a381612267565b9050919050565b7f45524332303a207472616e7366657220746f20746865207a65726f206164647260008201527f6573730000000000000000000000000000000000000000000000000000000000602082015250565b60006123066023836117f9565b9150612311826122aa565b604082019050919050565b60006020820190508181036000830152612335816122f9565b9050919050565b7f45524332303a207472616e7366657220616d6f756e742065786365656473206260008201527f616c616e63650000000000000000000000000000000000000000000000000000602082015250565b60006123986026836117f9565b91506123a38261233c565b604082019050919050565b600060208201905081810360008301526123c78161238b565b9050919050565b7f4f776e61626c653a2063616c6c6572206973206e6f7420746865206f776e6572600082015250565b60006124046020836117f9565b915061240f826123ce565b602082019050919050565b60006020820190508181036000830152612433816123f7565b9050919050565b600060808201905081810360008301526124548187611845565b90506124636020830186611abd565b81810360408301526124758185611845565b905061248460608301846119af565b95945050505050565b600060408201905081810360008301526124a78185611845565b90506124b66020830184611abd565b9392505050565b600060408201905081810360008301526124d78185611845565b90506124e660208301846119af565b9392505050565b7f45524332303a206d696e7420746f20746865207a65726f206164647265737300600082015250565b6000612523601f836117f9565b915061252e826124ed565b602082019050919050565b6000602082019050818103600083015261255281612516565b905091905056fea2646970667358221220d794efc2b89197d04e718562a2582276c70eeb147f09d55908088e828dbdd54e64736f6c63430008110033",
  "linkReferences": {},
  "deployedLinkReferences": {}
}